:020000040800F2
:10000000D8070020CD010008532A00083D2A000827
:100010004F2A0008870200088D2E0008000000000B
:10002000000000000000000000000000C72A0008D7
:100030008B02000800000000C52A0008A92C000857
:10004000E7010008E7010008E7010008E7010008F0
:10005000E7010008E7010008E7010008E7010008E0
:10006000E7010008E7010008E7010008E7010008D0
:10007000E7010008E7010008E7010008E7010008C0
:10008000E7010008E7010008E7010008E7010008B0
:10009000E7010008E7010008E7010008E7010008A0
:1000A000E7010008E7010008E7010008E701000890
:1000B000E70100080D2D0008C52D0008E701000824
:1000C000E7010008E7010008E7010008E701000870
:1000D000E7010008ED2D00083D2E0008E7010008AB
:1000E000E7010008E7010008E7010008E701000850
:1000F000E7010008E7010008E7010008E701000840
:10010000E7010008E7010008E7010008E70100082F
:10011000E7010008E7010008E7010008E70100081F
:10012000E7010008E7010008E7010008E70100080F
:1001300000F002F800F03AF80AA090E8000C8244BF
:100140008344AAF10107DA4501D100F02FF8AFF29C
:10015000090EBAE80F0013F0010F18BFFB1A43F0A5
:1001600001031847D84A0000F84A0000103A24BF9B
:1001700078C878C1FAD8520724BF30C830C144BF0C
:1001800004680C607047000000230024002500264E
:10019000103A28BF78C1FBD8520728BF30C148BFEA
:1001A0000B6070471FB51FBD10B510BD00F031F8D2
:1001B0001146FFF7F7FF02F06BFE00F04FF803B4B3
:1001C000FFF7F2FF03BC00F057F800000948804732
:1001D00009480047FEE7FEE7FEE7FEE7FEE7FEE729
:1001E000FEE7FEE7FEE7FEE704480549054A064B41
:1001F00070470000AD2C000831010008D801002034
:10020000D8070020D8030020D8030020704770478B
:100210007047754600F02CF8AE4605006946534617
:1002200020F00700854618B020B5FFF7DDFFBDE8D8
:1002300020404FF000064FF000074FF000084FF04D
:10024000000B21F00701AC46ACE8C009ACE8C009DE
:10025000ACE8C009ACE8C0098D46704710B504464B
:10026000AFF300802046BDE81040FFF7A8BF0000B4
:10027000004870477801002001491820ABBEFEE716
:1002800026000200704700BFFEE77047002100E033
:10029000491C8142FCD370470C48806940F008003B
:1002A0000A4988610A48006820F00F000849086080
:1002B0000846006840F00300086005480830006800
:1002C00020F4807002490831086070470010024035
:1002D000040C01400348006840F080700149086048
:1002E00070470000100C01400348006840F4807023
:1002F0000149086070470000100C014008B54248F1
:10030000007800287FD041480078401C3F490870A1
:1003100008460078022806D0032805D0042832D0E9
:1003200005286BD13BE06AE04FF6FF704FF448734D
:1003300000224FF4F0710090104600F0AFFE3448F8
:100340000078412802D0422818D10BE04FF6FF7008
:100350004FF478432FA24FF4BE710090902002F02A
:10036000ECF80BE04FF6FF704FF478432DA24FF4FA
:10037000BE710090902002F0E0F800BF00BF2D4851
:10038000FFF784FF3BE04FF6FF704FF44873002205
:100390004FF4F0710090104600F080FE2FE0002036
:1003A0002549087019490870D220244908804FF463
:1003B000437023490880D22022490880082022491E
:1003C0000880F020214908804FF4437020490880BC
:1003D00000202049087020490870204908702049F1
:1003E00008702049087001201F49087000201F492B
:1003F00008701F49087002E005E0FFE700BF00BF7A
:1004000000200149087008BD07000020A900002055
:1004100074000020506C6179657220412077696E0C
:1004200073210000506C6179657220422077696EFB
:100430007321000080F0FA022A000020360000201C
:10044000380000203C0000203E0000204600002034
:10045000480000206A000020700000207100002089
:100460002D0000202E000020210000202B00002065
:100470002900002008B54048007800287AD03F487D
:10048000FFF704FF1F204FF6FF733DA2502100909D
:10049000084602F052F83948FFF7F8FE4FF478406A
:1004A0004FF6FF733DA28C210090642002F028F8E3
:1004B0003248FFF7EBFE4FF478404FF6FF733DA252
:1004C000B4210090642002F01BF82C48FFF7DEFEF8
:1004D0004FF478404FF6FF733AA2DC21009064207D
:1004E00002F00EF82548FFF7D1FE4FF6FF704FF4EB
:1004F000BE73502219460090104600F0CFFD4FF415
:1005000078404FF6FF7334A24FF48271009064205C
:1005100001F0F6FF1F204FF6FF7338A24FF49671DB
:100520000090642001F0ECFF4FF6FF701F2335A20E
:100530004FF4AA710090642001F0E2FF4FF478407C
:100540004FF6FF7331A24FF4BE710090642001F0AA
:10055000D7FF00200849087001203149087031494F
:1005600008700020304908700120304908704E2082
:100570002F49087008BD00002100002080969800D7
:1005800057656C636F6D6520746F206D696E6920AF
:1005900050726F6A656374210000000054686973CB
:1005A000206973207468652046696E616C204C6117
:1005B000622E000041726520796F7520726561645A
:1005C000793F00004F4B21204C65742773207374D2
:1005D0006172742E00000000506C656173652073B9
:1005E000656C656374207468652064696666696318
:1005F000756C7479206C6576656C3A004561737929
:1006000000000000486172640000000050726573D1
:10061000204B45593020746F20656E7465722E0032
:100620002600002024000020250000207300002068
:100630007400002038B5FD480078002871D000F023
:1006400083FB18B900F09CFA08281FD1F84800680D
:10065000401CF74908600846006802281BD9F54885
:100660000078C0B9F448007808B9012000E0002003
:10067000F14908700846007808B9012000E0002020
:10068000EE4908700120EB49087004E00020E949B8
:100690000870E7490860EA480078012806D1E64971
:1006A00008700020E5490870E5490870E2480078C4
:1006B00000287DD04FF6FF700346E2A24FF49671FA
:1006C0000090C82001F01CFF4FF6FF700346DFA228
:1006D0004FF4AA710090C82001F012FFFFF7FAFD55
:1006E00000F0C0FADB49087008460078012802D003
:1006F00003282CD116E04FF6FF700C230090D6484B
:1007000002883C21D548008800F0C8FCD348008806
:10071000B0F5D17F04DAD1480088801CCF49088029
:1007200016E0E8E14FF6FF700C230090CA480288FB
:100730003C21CA48008800F0B1FCC8480088022863
:1007400004DBC6480088801EC449088000E000BF62
:1007500000BF4FF6FF700090C14800880F3881B28B
:1007600001230F22BF48008800F0C2FB00F010FBFD
:10077000BC480088BC4909880844BA490880B84880
:100780000088BA490988401AB549088000200C231E
:100790000090B14802883C21B048008800F07EFCFF
:1007A0004FF478400090AE4800880F3881B200E0E6
:1007B000DAE001230F22AB48008800F099FB00F03B
:1007C000DFF9AB49087008460078402817D0802828
:1007D0002AD14FF6FF700C230090A64802883C21D6
:1007E000A548008800F05AFCA3480088B0F5D17FE6
:1007F00004DCA1480088801C9F49088015E04FF662
:10080000FF700C2300909B4802883C219A48008886
:1008100000F044FC98480088022804DB96480088D1
:10082000801E9549088000E000BF00BF00200C2317
:100830000090904802883C218F48008800F02EFCF0
:100840008E480068401C8D4908600846006864288E
:1008500007D98B480078401C8949087000208749D7
:100860000860874800783C2807DD86480078401CEF
:10087000844908700020824908704FF6FF701F23DA
:1008800081A24FF4C37100900A2001F039FE804824
:1008900000780A2190FBF1F0C4B24FF6FF701F23DD
:1008A00022464FF4C37100903C2001F013FE7848BB
:1008B00000780A2190FBF1F201FB1200C4B24FF65E
:1008C000FF701F2322464FF4C3710090442001F0B3
:1008D00001FE4FF6FF701F236EA24FF4CD71009002
:1008E0000A2001F00DFE4FF6FF701F2300906548AF
:1008F00002784FF4CD713C2001F0ECFD4FF6FF7013
:100900001F2366A24FF4CD710090462001F0F8FD40
:100910005B4800780A2190FBF1F0C4B24FF6FF70FB
:100920001F2322464FF4CD7100904E2001F0D2FDDE
:10093000534800780A2190FBF1F201FB1200C4B287
:100940004FF6FF701F2322464FF4CD7100905620C2
:1009500001F0C0FD4FF6FF701F2351A24FF4CD717F
:1009600000905E2001F0CCFD3448007800285CD077
:1009700000F0F6F918B900F003F9102819D11F207A
:100980004FF6FF732FA24FF496710090C82001F02C
:10099000B7FD4FF6FF701F232CA24FF4AA710090F1
:1009A000C82001F0ADFD01203E49087000203E49FD
:1009B000087000F0BDF918B900F0E2F8202819D14C
:1009C0004FF6FF701F231FA24FF496710090C820AE
:1009D00001F096FD1F204FF6FF731CA24FF4AA7181
:1009E0000090C82001F08CFD00202E4908700120E5
:1009F0002D49087000F0C0F918B900F0C1F80428BA
:100A000060D12848007801285CD10B49087000208B
:100A10000A4908704FF6FF7003460AA24FF4967118
:100A20000090C82001F06CFD40E061E0050000206E
:100A3000A4000020A80000202B0000202C00002093
:100A400031000020537461727400000045786974AD
:100A5000210000003A00002038000020360000206D
:100A600048000020460000204200002044000020F2
:100A7000400000203E0000203C0000206C000020D0
:100A80007000002071000020526F756E643A000003
:100A90006A0000202054696D653A00006D00000076
:100AA000730000002D0000202E0000204FF6FF7084
:100AB0000346AFF268024FF4AA710090C82001F01B
:100AC0001FFD15E000F058F918B900F059F8042896
:100AD0000ED10948007801280AD108490870002081
:100AE00007490870074908700549087006490870E9
:100AF00000200649087038BD2E0000202A00002082
:100B00002C0000202B0000202900002005000020E0
:100B10001848806940F008001649886108468069D5
:100B200040F0200088611448006820F47F4012499A
:100B300008600846006840F4605008600E480830BD
:100B4000006840F440600C49083108600B480068B8
:100B500020F47040094908600846006840F440509D
:100B6000086006480C30006840F0080003490C316A
:100B70000860704700100240040C0140001401405E
:100B800008B5002000901C48006840F400601A4935
:100B90000860502001F054FF1748006840F00060E2
:100BA00015490860002322E09DF8000040100090E5
:100BB000114808380068C0F3802020B99DF8000073
:100BC00040F0800000900D48006840F008000B499C
:100BD0000860502001F034FF0848006840F400200D
:100BE00006490860502001F02BFF581CC3B2082BA7
:100BF000DADB9DF8000008BD100C01401014014024
:100C00001348806940F04400114988611148006828
:100C100020F00F000F4908600846006840F0080007
:100C200008604FF480300B49103108600A480068B2
:100C30000A4908400849086008460068084908430E
:100C4000054908601C200449103108607047000005
:100C5000001002400008014000180140FF00F0FFB2
:100C6000008808000C4802680C480168C1F3800045
:100C700008B903207047C1F3C00008B90220F9E7A2
:100C8000C1F3001008B90120F4E702F0010008B137
:100C90000420EFE70020EDE70808014008180140B4
:100CA0001648806940F0480014498861144800687B
:100CB00020F47000124908600846006840F44010B3
:100CC00008601048006820F470000E49086008466B
:100CD000006840F44010086009481030006840F097
:100CE000200007491031086006481030006840F0C5
:100CF00020000449103108607047000000100240D5
:100D0000000C014000180140014601F007021202E8
:100D1000054B18684FF6FF031840044B1843104367
:100D2000014B1860704700000CED00E00000FA0570
:100D300004480168C1F3001008B100207047012089
:100D4000FCE700000818014004480168C1F3C00036
:100D500008B1002070470120FCE70000081801409E
:100D600004480168C1F3800008B1002070470120E9
:100D7000FCE70000081801400448016801F0010088
:100D800008B1012070470020FCE70000080801407E
:100D900010B532480088B0F5E17F03DC2F480088A9
:100DA0001E2806DA2E48008840422D490880FFF7A9
:100DB0009BFA2C4800880F3840F2FD21884203DC62
:100DC00028480088232848DAFFF78EFA264800884A
:100DD00040422549088025480078401C2349087076
:100DE00020480088B0F53E7F19DB1C480088204968
:100DF0000988884206DB194801881D4800883C3074
:100E000081420CDD00201B4908701B49087001203D
:100E10001A49087042201A490870FFF75BFA114816
:100E20000088232819DA0D48008816490988884265
:100E300006DB0A480188134800883C3081420CDDFB
:100E400000200C4908700C49087001200B490870FB
:100E500041200B490870FFF73DFA10BD4600002005
:100E60004200002048000020440000206A000020CA
:100E700036000020290000202B0000202A0000203E
:100E8000740000203C00002030B5044600214FF4DF
:100E9000585001F073FB4FF4285001F06BFB002019
:100EA00001F074FB42F6012001F064FB002001F028
:100EB0006DFB4FF42C5001F05DFB002001F066FB50
:100EC00042F6013001F056FB002001F05FFB4FF4C9
:100ED000305001F04FFB054D002303E0204601F0A8
:100EE00055FB5B1CAB42F9DB30BD000000DC0500AC
:100EF0002DE9F04F05460E4692469B460024574684
:100F00000320A0EB4A09BBF1000F48D144E0F21BDB
:100F100091B22A1990B2099A00F099F8321B91B255
:100F2000EA1990B2099A00F092F8321991B2EA19CE
:100F300090B2099A00F08BF8F21991B22A1990B286
:100F4000099A00F084F8F21991B22A1B90B2099A1A
:100F500000F07DF8321991B2EA1B90B2099A00F0C4
:100F600076F8F21B91B22A1B90B2099A00F06FF842
:100F7000321B91B2EA1B90B2099A00F068F8641C27
:100F8000B9F1000F03DAA000801D814404E0E01BEA
:100F900080000A3081447F1EBC42B8DD55E052E03B
:100FA000A04641E0A6EB080291B22A1990B2099A34
:100FB00000F04DF8321B91B205EB080290B2099A8D
:100FC00000F045F8321991B205EB080290B2099A87
:100FD00000F03DF806EB080291B22A1990B2099A86
:100FE00000F035F806EB080291B22A1B90B2099A7C
:100FF00000F02DF8321991B2A5EB080290B2099ACF
:1010000000F025F8A6EB080291B22A1B90B2099ACB
:1010100000F01DF8321B91B2A5EB080290B2099ABC
:1010200000F015F808F10108B845BBDD641CB9F102
:10103000000F03DAA000801D814404E0E01B800063
:101040000A3081447F1EBC42AADDBDE8F08F10B596
:1010500003460C464FF4285001F08CFA181201F0A8
:1010600095FA42F6012001F085FAD8B201F08EFA25
:101070004FF42C5001F07EFA201201F087FA42F66C
:10108000013001F077FAE0B201F080FA4FF430500D
:1010900001F070FA104601F079FA10BDF0B504467F
:1010A0000D46059F00264FF4285001F063FA2012E8
:1010B00001F06CFA42F6012001F05CFAE0B201F0B6
:1010C00065FA42F6022001F055FA2919491EC1F3CA
:1010D0000F2001F05BFA42F6032001F04BFA2919C8
:1010E000491EC8B201F052FA4FF42C5001F042FAF6
:1010F000101201F04BFA42F6013001F03BFAD0B287
:1011000001F044FA42F6023001F034FA9918491E0F
:10111000C1F30F2001F03AFA42F6033001F02AFA47
:101120009918491EC8B201F031FA4FF4305001F05D
:1011300021FA00BF03E0384601F028FA761C05FBCF
:1011400003F0B042F7D8F0BD10B55748406940F4FD
:101150008070554948610846806940F00800886100
:101160000846806940F0200088610846806940F0A8
:10117000400088610846806940F4807088614B486F
:10118000006820F00F00494908600846006840F0F8
:101190000300086046480068464908404449086022
:1011A000084600684449084341490860081F006830
:1011B00000F0FF20091F08600846006840F0BB10DF
:1011C00008603E48006800203C4908600846006806
:1011D00040F0BB300860081F006820F07040091F15
:1011E00008600846006840F03040086034484068B5
:1011F00020F47020324948600846406840F43020AE
:1012000048600846006820F00F0008600846006843
:1012100040F00B00086000204FF020418861C86159
:10122000284908604FF02040806940F480504FF01A
:10123000204188610846806940F480408861084602
:10124000806940F0100088610846C069C86108469E
:10125000C06940F00100C8610846C06940F4706090
:10126000C86118480068C1F81C0116480068C1F838
:101270001C010846D0F81C0140F44070C1F81C0164
:101280000846806940F0010088610F48FEF7FEFFC4
:1012900000F01CF805481030006840F001000349D8
:1012A0001031086010BD000000100240000C014029
:1012B0000414014000F0FF00BB0B00BB0418014008
:1012C000002001401C0100A040420F0010B5552134
:1012D0004FF4704001F052F9AA214FF2010001F0E1
:1012E0004DF952214FF2020001F048F908214FF266
:1012F000030001F043F901214FF2040001F03EF92F
:101300000D214FF4304001F039F90D214BF201006D
:1013100001F034F90D214BF2020001F02FF93521D3
:101320004FF4364001F02AF935214BF2016001F00B
:1013300025F935214BF2026001F020F90D214FF41F
:10134000314001F01BF90D214BF2011001F016F9AB
:101350000D214BF2021001F011F935214FF4374005
:1013600001F00CF935214BF2017001F007F935213C
:101370004BF2027001F002F900214FF4324001F00B
:10138000FDF800214BF2012001F0F8F800214BF2AA
:10139000022001F0F3F824214FF4384001F0EEF878
:1013A00024214BF6010001F0E9F824214BF602005C
:1013B00001F0E4F801214FF43F4001F0DFF808218B
:1013C0004FF4334001F0DAF808214BF2013001F01C
:1013D000D5F808214BF2023001F0D0F834214FF457
:1013E000394001F0CBF834214BF6011001F0C6F87A
:1013F00034214BF6021001F0C1F824214FF43A4099
:1014000001F0BCF824214BF6012001F0B7F82421AB
:101410004BF6022001F0B2F800214FF43C4001F0FD
:10142000ADF888214BF6014001F0A8F800214BF6F9
:10143000024001F0A3F800214FF43D4001F09EF876
:1014400088214BF6015001F099F800214BF602502B
:1014500001F094F800214FF43E4001F08FF8A321F1
:101460004BF6016001F08AF800214FF4514001F081
:1014700085F805214DF2011001F080F800214DF2B0
:10148000021001F07BF840214DF2031001F076F8D4
:1014900000214DF2041001F071F860214DF20510A9
:1014A00001F06CF800214DF2061001F067F8902170
:1014B0004DF2071001F062F800214DF2081001F022
:1014C0005DF899214DF2091001F058F800214DF214
:1014D0000A1001F053F8BB214DF20B1001F04EF849
:1014E00000214DF20C1001F049F8DC214DF20D10F5
:1014F00001F044F801214DF20E1001F03FF80421F3
:101500004DF20F1001F03AF801214DF2101001F0E8
:1015100035F825214DF2111001F030F801214DF27E
:10152000121001F02BF859214DF2131001F026F89A
:1015300001214DF2141001F021F882214DF2151015
:1015400001F01CF801214DF2161001F017F8C62128
:101550004DF2171001F012F802214DF2181001F0AF
:101560000DF801214DF2191001F008F802214DF299
:101570001A1001F003F802214DF21B1000F0FEFFDB
:1015800002214DF21C1000F0F9FF39214DF21D101F
:1015900000F0F4FF02214DF21E1000F0EFFF792160
:1015A0004DF21F1000F0EAFF02214DF2201000F072
:1015B000E5FFA1214DF2211000F0E0FF02214DF2E4
:1015C000221000F0DBFFD9214DF2231000F0D6FFEE
:1015D00003214DF2241000F0D1FF00214DF225101F
:1015E00000F0CCFF03214DF2261000F0C7FF382198
:1015F0004DF2271000F0C2FF03214DF2281000F039
:10160000BDFF67214DF2291000F0B8FF03214DF214
:101610002A1000F0B3FF8F214DF22B1000F0AEFF27
:1016200003214DF22C1000F0A9FFCD214DF22D1019
:1016300000F0A4FF03214DF22E1000F09FFFFD21CA
:101640004DF22F1000F09AFF03214DF2301000F000
:1016500095FFFE214DF2311000F090FF03214DF275
:10166000321000F08BFFFF214DF2331000F086FFA7
:1016700000214FF4524000F081FF05214DF201207E
:1016800000F07CFF00214DF2022000F077FF4021A6
:101690004DF2032000F072FF00214DF2042000F013
:1016A0006DFF6D214DF2052000F068FF00214DF225
:1016B000062000F063FF90214DF2072000F05EFF4E
:1016C00000214DF2082000F059FF99214DF2092028
:1016D00000F054FF00214DF20A2000F04FFFBB2123
:1016E0004DF20B2000F04AFF00214DF20C2000F0DB
:1016F00045FFDC214DF20D2000F040FF01214DF2AD
:101700000E2000F03BFF04214DF20F2000F036FFC9
:1017100001214DF2102000F031FF25214DF2112062
:1017200000F02CFF01214DF2122000F027FF59217B
:101730004DF2132000F022FF01214DF2142000F0A1
:101740001DFF82214DF2152000F018FF01214DF2FE
:10175000162000F013FFC6214DF2172000F00EFFF7
:1017600002214DF2182000F009FF01214DF219204D
:1017700000F004FF02214DF21A2000F0FFFE0221CA
:101780004DF21B2000F0FAFE02214DF21C2000F069
:10179000F5FE39214DF21D2000F0F0FE02214DF240
:1017A0001E2000F0EBFE79214DF21F2000F0E6FE36
:1017B00002214DF2202000F0E1FEA1214DF2212076
:1017C00000F0DCFE02214DF2222000F0D7FED921EC
:1017D0004DF2232000F0D2FE03214DF2242000F030
:1017E000CDFE00214DF2252000F0C8FE03214DF270
:1017F000262000F0C3FE38214DF2272000F0BEFE67
:1018000003214DF2282000F0B9FE67214DF2292076
:1018100000F0B4FE03214DF22A2000F0AFFE8F212C
:101820004DF22B2000F0AAFE03214DF22C2000F0F7
:10183000A5FECD214DF22D2000F0A0FE03214DF29A
:101840002E2000F09BFEFD214DF22F2000F096FE91
:1018500003214DF2302000F091FEFE214DF23120A7
:1018600000F08CFE03214DF2322000F087FEFF21B4
:101870004DF2332000F082FE00214FF4534000F07F
:101880007DFE05214DF2013000F078FE00214DF281
:10189000023000F073FE40214DF2033000F06EFE86
:1018A00000214DF2043000F069FE6D214DF205304B
:1018B00000F064FE00214DF2063000F05FFE902142
:1018C0004DF2073000F05AFE00214DF2083000F0D2
:1018D00055FE99214DF2093000F050FE00214DF2E5
:1018E0000A3000F04BFEBB214DF20B3000F046FEFB
:1018F00000214DF20C3000F041FEDC214DF20D30A4
:1019000000F03CFE01214DF20E3000F037FE0421C4
:101910004DF20F3000F032FE01214DF2103000F098
:101920002DFE25214DF2113000F028FE01214DF24F
:10193000123000F023FE59214DF2133000F01EFE4C
:1019400001214DF2143000F019FE82214DF21530C4
:1019500000F014FE01214DF2163000F00FFEC621FA
:101960004DF2173000F00AFE02214DF2183000F05F
:1019700005FE01214DF2193000F000FE02214DF26A
:101980001A3000F0FBFD02214DF21B3000F0F6FD95
:1019900002214DF21C3000F0F1FD39214DF21D30D5
:1019A00000F0ECFD02214DF21E3000F0E7FD792140
:1019B0004DF21F3000F0E2FD02214DF2203000F028
:1019C000DDFDA1214DF2213000F0D8FD02214DF2C4
:1019D000223000F0D3FDD9214DF2233000F0CEFDAE
:1019E00003214DF2243000F0C9FD00214DF22530D5
:1019F00000F0C4FD03214DF2263000F0BFFD382178
:101A00004DF2273000F0BAFD03214DF2283000F0EE
:101A1000B5FD67214DF2293000F0B0FD03214DF2F4
:101A20002A3000F0ABFD8F214DF22B3000F0A6FDE7
:101A300003214DF22C3000F0A1FDCD214DF22D30CF
:101A400000F09CFD03214DF22E3000F097FDFD21AA
:101A50004DF22F3000F092FD03214DF2303000F0B6
:101A60008DFDFE214DF2313000F088FD03214DF255
:101A7000323000F083FDFF214DF2333000F07EFD67
:101A800000214FF4544000F079FD05214DF2014052
:101A900000F074FD00214DF2024000F06FFD402186
:101AA0004DF2034000F06AFD00214DF2044000F0C9
:101AB00065FD6D214DF2054000F060FD00214DF205
:101AC000064000F05BFD90214DF2074000F056FD0E
:101AD00000214DF2084000F051FD99214DF20940DE
:101AE00000F04CFD00214DF20A4000F047FDBB2103
:101AF0004DF20B4000F042FD00214DF20C4000F091
:101B00003DFDDC214DF20D4000F038FD01214DF28C
:101B10000E4000F033FD04214DF20F4000F02EFD89
:101B200001214DF2104000F029FD25214DF2114018
:101B300000F024FD01214DF2124000F01FFD59215B
:101B40004DF2134000F01AFD01214DF2144000F057
:101B500015FD82214DF2154000F010FD01214DF2DE
:101B6000164000F00BFDC6214DF2174000F006FDB7
:101B700002214DF2184000F001FD01214DF2194003
:101B800000F0FCFC02214DF21A4000F0F7FC0221AB
:101B90004DF21B4000F0F2FC02214DF21C4000F01F
:101BA000EDFC39214DF21D4000F0E8FC02214DF220
:101BB0001E4000F0E3FC79214DF21F4000F0DEFCF6
:101BC00002214DF2204000F0D9FCA1214DF221402C
:101BD00000F0D4FC02214DF2224000F0CFFCD921CC
:101BE0004DF2234000F0CAFC03214DF2244000F0E6
:101BF000C5FC00214DF2254000F0C0FC03214DF250
:101C0000264000F0BBFC38214DF2274000F0B6FC26
:101C100003214DF2284000F0B1FC67214DF229402C
:101C200000F0ACFC03214DF22A4000F0A7FC8F210C
:101C30004DF22B4000F0A2FC03214DF22C4000F0AD
:101C40009DFCCD214DF22D4000F098FC03214DF27A
:101C50002E4000F093FCFD214DF22F4000F08EFC51
:101C600003214DF2304000F089FCFE214DF231405D
:101C700000F084FC03214DF2324000F07FFCFF2194
:101C80004DF2334000F07AFC00214FF4554000F053
:101C900075FC05214DF2015000F070FC00214DF261
:101CA000025000F06BFC40214DF2035000F066FC46
:101CB00000214DF2045000F061FC6D214DF2055001
:101CC00000F05CFC00214DF2065000F057FC902122
:101CD0004DF2075000F052FC00214DF2085000F088
:101CE0004DFC99214DF2095000F048FC00214DF2C5
:101CF0000A5000F043FCBB214DF20B5000F03EFCBB
:101D000000214DF20C5000F039FCDC214DF20D5059
:101D100000F034FC00214DF20E5000F02FFC0421A5
:101D20004DF20F5000F02AFC01214DF2105000F04E
:101D300025FC25214DF2115000F020FC01214DF22F
:101D4000125000F01BFC59214DF2135000F016FC0C
:101D500001214DF2145000F011FC82214DF215507A
:101D600000F00CFC01214DF2165000F007FCC621DA
:101D70004DF2175000F002FC02214DF2185000F015
:101D8000FDFB01214DF2195000F0F8FB02214DF24C
:101D90001A5000F0F3FB02214DF21B5000F0EEFB55
:101DA00002214DF21C5000F0E9FB39214DF21D508B
:101DB00000F0E4FB02214DF21E5000F0DFFB792120
:101DC0004DF21F5000F0DAFB02214DF2205000F0DE
:101DD000D5FBA1214DF2215000F0D0FB02214DF2A4
:101DE000225000F0CBFBD9214DF2235000F0C6FB6E
:101DF00003214DF2245000F0C1FB00214DF225508B
:101E000000F0BCFB03214DF2265000F0B7FB382157
:101E10004DF2275000F0B2FB03214DF2285000F0A4
:101E2000ADFB67214DF2295000F0A8FB03214DF2D4
:101E30002A5000F0A3FB8F214DF22B5000F09EFBA7
:101E400003214DF22C5000F099FBCD214DF22D5085
:101E500000F094FB03214DF22E5000F08FFBFD218A
:101E60004DF22F5000F08AFB03214DF2305000F06C
:101E700085FBFE214DF2315000F080FB03214DF235
:101E8000325000F07BFBFF214DF2335000F076FB27
:101E900000214FF4564000F071FB05214DF2016026
:101EA00000F06CFB00214DF2026000F067FB402166
:101EB0004DF2036000F062FB00214DF2046000F07F
:101EC0005DFB6D214DF2056000F058FB00214DF2E5
:101ED000066000F053FB90214DF2076000F04EFBCE
:101EE00000214DF2086000F049FB99214DF2096094
:101EF00000F044FB00214DF20A6000F03FFBBB21E3
:101F00004DF20B6000F03AFB00214DF20C6000F046
:101F100035FBDC214DF20D6000F030FB01214DF26C
:101F20000E6000F02BFB04214DF20F6000F026FB49
:101F300001214DF2106000F021FB25214DF21160CE
:101F400000F01CFB01214DF2126000F017FB59213B
:101F50004DF2136000F012FB01214DF2146000F00D
:101F60000DFB82214DF2156000F008FB01214DF2BE
:101F7000166000F003FBC6214DF2176000F0FEFA78
:101F800002214DF2186000F0F9FA01214DF21960BA
:101F900000F0F4FA02214DF21A6000F0EFFA02218B
:101FA0004DF21B6000F0EAFA02214DF21C6000F0D5
:101FB000E5FA39214DF21D6000F0E0FA02214DF200
:101FC0001E6000F0DBFA79214DF21F6000F0D6FAB6
:101FD00002214DF2206000F0D1FAA1214DF22160E2
:101FE00000F0CCFA02214DF2226000F0C7FAD921AC
:101FF0004DF2236000F0C2FA03214DF2246000F09C
:10200000BDFA00214DF2256000F0B8FA03214DF22F
:10201000266000F0B3FA38214DF2276000F0AEFAE6
:1020200003214DF2286000F0A9FA67214DF22960E2
:1020300000F0A4FA03214DF22A6000F09FFA8F21EC
:102040004DF22B6000F09AFA03214DF22C6000F063
:1020500095FACD214DF22D6000F090FA03214DF25A
:102060002E6000F08BFAFD214DF22F6000F086FA11
:1020700003214DF2306000F081FAFE214DF2316013
:1020800000F07CFA03214DF2326000F077FAFF2174
:102090004DF2336000F072FA55214FF4704000F0B9
:1020A0006DFAAA214FF2010000F068FA52214FF2B6
:1020B000020000F063FA08214FF2030000F05EFA1C
:1020C00000214FF2040000F059FACC214FF43140C6
:1020D00000F054FA00214BF2011000F04FFA0521F4
:1020E0004FF4364000F04AFA70214FF4374000F0C8
:1020F00045FA70214BF2017000F040FA01214FF4D3
:10210000384000F03BFA05214BF6010000F036FAAA
:1021100005214BF6020000F031FA05214BF60300D1
:1021200000F02CFA00214FF43C4000F027FA002187
:102130004BF6014000F022FA00214BF6024000F07D
:102140001DFAD0214FF4494000F018FA82214CF6D4
:10215000011000F013FA50214CF6021000F00EFAB4
:1021600050214CF6031000F009FA50214CF60410EF
:1021700000F004FA55214FF4685000F0FFF94FF4D5
:10218000885000F0F7F90448FEF780F84FF4245027
:1021900000F0F0F910BD0000C0D401002DE9F841B5
:1021A00006460C4690461D464FF6FF700090A4F17F
:1021B0008C0082B28D234C213046FEF76FFF002742
:1021C00063E0344810F80800384100F001000028AE
:1021D00059D0072F55D2DFE807F004101C28343EF1
:1021E0004800A4F18C018AB206F10A0188B20B23DF
:1021F00038210095FEF752FF44E0A4F182018AB233
:1022000006F1410188B238230B210095FEF746FF05
:1022100038E0A4F141018AB206F1410188B23823C5
:102220000B210095FEF73AFF2CE0A4F10A018AB2D7
:1022300006F10A0188B20B2338210095FEF72EFF24
:1022400020E0A4F1410082B238230B2130460095F2
:10225000FEF724FF16E0A4F1820082B238230B219E
:1022600030460095FEF71AFF0CE0A4F14B018AB24C
:1022700006F10A0188B20B2338210095FEF70EFF04
:1022800000E000BF00BF781CC7B2072F99DBBDE894
:10229000F8810000140000202DE9F04F04460D469F
:1022A00016469A46DDF8249010224FF0080B202E97
:1022B00001DB7F2E01DDBDE8F08FA6F12000C6B264
:1022C0004FF4285000F056F9201200F05FF942F662
:1022D000012000F04FF9E0B200F058F942F6022078
:1022E00000F048F90BEB0401491EC1F30F2000F088
:1022F0004DF942F6032000F03DF90BEB0401491EB5
:10230000C8B200F043F94FF42C5000F033F9281212
:1023100000F03CF942F6013000F02CF9E8B200F090
:1023200035F942F6023000F025F95119491EC1F382
:102330000F2000F02BF942F6033000F01BF9511981
:10234000491EC8B200F022F94FF4305000F012F9E3
:10235000002325E04FF000081BE0002713E014489D
:1023600000EB061003EB4701405C00FA08F000F0B8
:10237000800018B1504600F009F902E0484600F02C
:1023800005F9781CC7B25F45E9DB08F1010000F0F0
:10239000FF0802EBD271B8EB610FDEDB581CC3B251
:1023A000D11702EB5171B3EBE10FD3DB00BF82E732
:1023B000EE3800082DE9F04F04460D4616469A46C1
:1023C000DDF8249018224FF00C0B202E01DB7F2E1D
:1023D00001DDBDE8F08FA6F12000C6B24FF4285011
:1023E00000F0C8F8201200F0D1F842F6012000F009
:1023F000C1F8E0B200F0CAF842F6022000F0BAF8E4
:102400000BEB0401491EC1F30F2000F0BFF842F6A8
:10241000032000F0AFF80BEB0401491EC8B200F036
:10242000B5F84FF42C5000F0A5F8281200F0AEF8E3
:1024300042F6013000F09EF8E8B200F0A7F842F64C
:10244000023000F097F85119491EC1F30F2000F037
:102450009DF842F6033000F08DF85119491EC8B2BC
:1024600000F094F84FF4305000F084F8002327E097
:1024700000271EE04FF0000817E006EBC6001449E5
:1024800001EB800008EB48011944405CB84000F0C3
:10249000800018B1504600F079F802E0484600F09C
:1024A00075F808F1010000F0FF08D845E5DB781C5D
:1024B000C7B2032092FBF0F0B842DBDC581CC3B279
:1024C000D11702EB5171B3EBE10FD1DB00BF80E715
:1024D000DE3E00082DE9F84305460E4614461F4629
:1024E000DDF820804FF0300909EB0400C2B23B4612
:1024F00031462846CDF80080FFF7CEFEBDE8F883D0
:102500002DE9F84105460E4614461F46DDF81C80AD
:102510000BE0CDF8008022783B4631462846FFF795
:10252000BBFE05F1080085B2641C20787E2802DC21
:1025300020782028EDDABDE8F8812DE9F84105463C
:102540000E4614461F46DDF81C800BE0CDF80080D7
:1025500022783B4631462846FFF72CFF05F10C0058
:1025600085B2641C20787E2802DC20782028EDDAF1
:10257000BDE8F8814FF0D841088070474FF0D8424D
:102580001080014A118070470008006C01490880E2
:10259000704700000008006C154AD26942F0020240
:1025A000134BDA61134A1080121F1180114A203A2E
:1025B000128842F001020F4B203B1A800D4A2C3A40
:1025C000128842F001020B4B2C3B1A8045230A4A29
:1025D00013700A4A126842F000524FF0E023C3F829
:1025E00000210022064B1A70064B1A70704700003B
:1025F000001002402C0400401DE400E000E100E077
:102600000800002009000020124AD26942F00402AA
:10261000104BDA61104A1080121F11800E4A203AC6
:10262000128842F001020C4B203B1A800A4A2C3AD5
:10263000128842F00102084B2C3B1A804523074ABE
:102640001370074A126842F080424FF0E023C3F84B
:1026500000217047001002402C0800401EE400E0FA
:1026600000E100E00548006840F020004FF0E02164
:10267000C1F80401302102480170704704E100E014
:1026800025E400E02DE9F05F05460E46300100F03C
:1026900095FD8146284905FB01F000F08FFD82463B
:1026A000494600F0A9FC0746384600F067FD84B2B1
:1026B000204600F083FD8346394600F05FFE8246E7
:1026C0004FF0834100F08EFD814600F057FD8046BB
:1026D0004FF6FF7000EA041404EB080084B21748B8
:1026E000806940F00400154988611548006820F4AD
:1026F0007F60134908600846006840F40B6008607A
:102700000E48C06840F480400C49C8600846C06864
:1027100020F48040C8600B48048042F20C00094954
:10272000091D08800846008840F02000088000202D
:1027300005490870BDE8F09F40420F0000100240BC
:1027400004080140083801400100002005480068E5
:1027500040F040004FF0E021C1F804013021024870
:102760000170704704E100E026E400E0072100204A
:102770002D4A126842F480322B4B1A6000BF2A4A5D
:102780001268C2F34042002AF9D0274A526822F464
:102790000032254B5A601A46526842F480325A6021
:1027A0001A46526842EA81425A601A46126842F05A
:1027B00080721A6000BF1C4A1268520E002AFAD0BA
:1027C000194A526822F00102174B5A601A465268A1
:1027D00042F002025A6005E0134A5268C2F38700D1
:1027E00000F003000228F7D10F4A526822F47C72ED
:1027F0000D4B5A601A46526842F480625A601A467B
:10280000526822F400525A603222084B1A60064A7B
:10281000D26942F40032044BDA611A46926942F4FA
:1028200080429A6170470000001002400020024080
:1028300008B54D48007800287DD0FEF79DFA18B9FC
:10284000FEF79EF910281CD11F204FF6FF7347A2F8
:102850004FF4967100906420FFF752FE4FF6FF7020
:102860001F2344A24FF4AA7100906420FFF748FE92
:102870000120424908700020414908700120414967
:102880000870FEF761FA18B9FEF77AF920281CD112
:102890004FF6FF701F2335A24FF49671009064200D
:1028A000FFF72EFE1F204FF6FF7332A24FF4AA71DE
:1028B00000906420FFF724FE0020304908700120BA
:1028C0002F49087003202F490870FEF731FA18B914
:1028D000FEF756F904281ED12948007801281AD19C
:1028E0004FF6FF70034628A24FF4BE71009064209B
:1028F000FFF706FE4FF478404FF6FF7327A24FF420
:10290000BE7100906420FFF7FBFD0020164908709F
:10291000012027490870FEF70BFA18B9FEF730F9C5
:10292000042820D11548007801281CD14FF6FF70EB
:1029300003461AA200E016E04FF4BE710090642036
:10294000FFF7DEFD4FF478404FF6FF730EA24FF411
:10295000BE7100906420FFF7D3FD0020024908708B
:1029600001201349087008BD2600002045617379D5
:102970000000000048617264000000002400002094
:102980002500002073000020596F752063686F6F69
:10299000736520456173792E20202000596F7520C2
:1029A00063686F6F736520486172642E2020200079
:1029B0002F00002008B51D480078A8B31C480078F7
:1029C000D0B14FF6FF704FF4487300224FF4F0710E
:1029D00000901046FEF762FB164802781F234FF462
:1029E000C871C820FFF7DAFB12480068401E114981
:1029F000086000200E4908700E480068002813DAAD
:102A000000200A4908704FF6FF704FF44873002207
:102A10004FF4F07100901046FEF740FB032005498B
:102A2000086001200449087008BD00007200002001
:102A300007000020A00000202900002000BFFEE7C2
:102A400000BF011EA0F1010290B2FAD1704700BF91
:102A5000FEE7704708B510480078D8B14FF6FF7010
:102A60004FF4487300224FF4F07100901046FEF7C7
:102A700015FB4FF478404FF6FF7308A24FF48271B4
:102A800000902820FFF759FD00200349087001201D
:102A90000B49087008BD00002F0000205573652009
:102AA000555341525420666F7220612072616E64EA
:102AB0006F6D20646972656374696F6E2E0000002B
:102AC000270000207047704708B523480078002889
:102AD00041D02248007800283DD04FF478404FF68E
:102AE000FF731FA24FF4967100906420FFF708FD5A
:102AF0004FF478400090224802784FF6FF734FF46D
:102B000096714FF4AE70FFF7E5FC1E48FDF7BEFB73
:102B10001B4800781C4931F820001C4909784843BB
:102B20001B49088016480078174901EB800040884F
:102B3000164909784843174908800020064908705B
:102B400001201549087000200449087013490870D5
:102B500001201349087008BD270000200100002053
:102B60005468652072616E646F6D206E756D62656C
:102B7000722072656365697665642069733A200026
:102B8000B000002080C3C9014A000020730000206B
:102B900042000020440000203000002000000020FF
:102BA0003100002010B500F001F810BD0CB5002078
:102BB000019000903348006840F48030314908604B
:102BC00000BF3048006800F4003000900198401CBD
:102BD0000190009818B90198B0F5A06FF1D129487B
:102BE000006800F4003010B10120009001E00020E6
:102BF00000900098012843D12348006840F010005D
:102C0000214908600846006820F003000860084673
:102C1000006840F0020008601A484068194948609E
:102C20000846406848600846406840F48060486054
:102C30000846406820F47C1048600846406840F42C
:102C4000E81048600846006840F08070086000BFE7
:102C50000C48006800F000700028F9D0094840686E
:102C600020F00300074948600846406840F0020031
:102C7000486000BF0348406800F00C000828F9D104
:102C80000CBD000000100240002002400448007803
:102C900028B10020024908700120024908707047DD
:102CA00030000020720000207047000010B513486B
:102CB000006840F00100114908600846406810496A
:102CC00008400E494860084600680E4908400B4914
:102CD00008600846006820F48020086008464068C4
:102CE00020F4FE0048604FF41F008860FFF75AFF91
:102CF0004FF000600449086010BD00000010024061
:102D00000000FFF8FFFFF6FE08ED00E02348008812
:102D100000F00100002840D001202149087021481E
:102D20000068401C1F4908601F480068401C1E497D
:102D300008601C480068012805DD01201B49087057
:102D4000002018490860184800680A2805DD00209E
:102D5000154908600120164908701648007848B1E6
:102D600014480078401EC0B21249087010B9012002
:102D7000114908701148007848B110480078401E89
:102D8000C0B20E49087010B901200D4908700348FF
:102D9000008820F0010001490880704710040040BD
:102DA000040000200C00002010000020050000207E
:102DB000060000200800002001000020090000207B
:102DC000030000200748008800F0010010B1012036
:102DD000054908700348008820F001000149088077
:102DE0007047000010080040070000200E490988C5
:102DF00001F02001B1B10C49091D0988C8B20B4985
:102E0000097864290BDA0121094A117007490A7807
:102E10000978491C054B19700649885402E00121C4
:102E2000054A117070470000003801400000002082
:102E300008000020B0000020010000200E49098891
:102E400001F02001B1B10C49091D0988C8B20B4934
:102E5000097864290BDA0121094A117007490A78B7
:102E60000978491C054B19700649885402E0012174
:102E7000054A117070470000004400400200002025
:102E800009000020140100200300002000BFFEE71D
:102E9000FDF706FFFDF700FAFDF7B2FEFDF738FE7D
:102EA000FFF764FC0520FDF72FFFFEF74DF9FFF754
:102EB000D9FBFFF74BFC4FF461514820FFF7E2FBD1
:102EC000632141F61F40FFF767FB42F20F7141F6A5
:102ED0001F40FFF799FB4FF6FF70FDF7D5FF01206C
:102EE0000F4908700F49087000200F49087015E05D
:102EF000FDF7C0FAFFF79CFCFFF7ACFDFFF7E4FD20
:102F0000FFF7C4FEFFF756FD0848007808B1FDF74B
:102F100091FB0748007808B1FDF7F0F9E8E70000F9
:102F2000210000202400002025000020290000208E
:102F30002A00002090EA010F48BF81F0004100F113
:102F40002E82421A3CBF801A89184FEAD0524FF0A5
:102F50007F4C1CEA410FA2EBD15318BF9CEA026FD1
:102F600000F03B804FF0004C4CEA00204CEA01217D
:102F700021FA03FC10EB0C0C1ED202F1FF325FEAC7
:102F80001C2040EBC25038BF70471CF07F0F4FEA47
:102F9000400C18BFBCF17F4F38BF7047C3F120030E
:102FA000994008BF20F00100BCF17F4F38BF704747
:102FB000A0F1C04000F0DDB94FEA3C00000A40EB50
:102FC000C25028BF1CF0FF0F4FEA400CE6D018BFDC
:102FD000BCF17F4F38BF7047EAE79CEA026F05D02B
:102FE00010EA5C0F08BF00F00040704710B500F019
:102FF0007AF900BF64FBBE3E4FF47F0C1CEAD0128E
:103000001EBF1CEAD11392EA0C0F93EA0C0F00F0DA
:10301000858090EA010F48BF42F4807240F4000CB2
:1030200041F400002CF07F4120F07F4000B5814248
:10303000A2EB03020FF2081CACEB504EC0F10000F3
:103040009EF800E04FEA4E0E00FB0EFC38BF490030
:103050004FEA2C1C02F5FA020CFB0EF34FEACE1ECF
:103060004FEA112C4FEAC1210EEB635E42EB224284
:103070000EFB0CFC4FEA1C5300FB03114FEA112C12
:103080004FEA01310EFB0CFC4FEADC4C00FB0C114B
:10309000C14228BF09184CEB03335DF804EB10EB79
:1030A000410143EBC250B2F57C0F38BF704729D5C0
:1030B00012F0F00F1CBF00F1C04000F0004070475C
:1030C000008182838485868788898B8C8D8E8F9101
:1030D0009293959697999A9C9D9FA0A2A3A5A7A825
:1030E000AAACAEB0B2B3B5B7B9BCBEC0C2C5C7C951
:1030F000CCCED1D4D7D9DCDFE2E6E9ECF0F3F7FAB5
:10310000FE0000004FEA400C0CF1807CBCF17E4FC9
:1031100028BF7047B0F1C04000F02BB990EA010F12
:103120000CEAD11348BF42F48072624538BF634550
:1031300007D213F47F0F16D080EA010000F00040A0
:10314000704710B500F0CFF8097EFC3E00F005B8DE
:1031500080EA010000F00040704780EA010000F0C2
:10316000004000F006B912F47F0F04BF0248704718
:1031700080EA010000F0FDB80000C07FC10DD1F170
:103180009E0206DB4FEA002343F0004323FA02F0DD
:103190007047004207D54FEA4001B1F1FE4F02D21D
:1031A0004FF00000704710B500F09DF84992248060
:1031B000002070476FEA200070470000B0FA80F3EB
:1031C00010FA03F2C3F19D030AD0D90501EB1220D6
:1031D000530638BF704700F1010008BF20F001001E
:1031E000704700004FF47F0C1CEAD0121EBF1CEA8F
:1031F000D11392EA0C0F93EA0C0F00F0478090EA8B
:10320000010F48BF42F480724FF0004C4CEA00209E
:103210004CEA012102EB0302A0FB0113A2F500021C
:10322000002918BF43F001035B0028BF4FEA3303B6
:1032300042EB22425FEA132C4CEBC2502EBFBCEB98
:10324000436FB2F57C0F70474FEA036CBCF1004F3F
:1032500008BF20F00100B2F57C0F38BF70470BD5D6
:1032600082F0FF0212F5803FC8BF704700F1C040F6
:10327000D8BF00F00040704700F5000C5FEA4C0C2E
:1032800048BF7047B0F1C04000F073B890EA010F3A
:103290000CEAD11348BF42F48072624538BF6345DF
:1032A00004D280EA010000F00040704710B500F041
:1032B0001AF800BF8900013E00F007B800F009B815
:1032C0005FEA410C5FEA1C6C08D080EA010000F064
:1032D00050B85FEA400C5FEA1C6CF6D14FF000403A
:1032E000A0F5800070470EF1020E2EF0030E5EF87E
:1032F000044B244204D44FEA4102B2F17F4F11D86B
:103300004FEA4003B3F17F4F0CD80ED14FEAD07C87
:10331000B2F17F4F0CEB4C0C0CF1020C08BF4CEBE4
:10332000D17C04E04FF0080C01E04FEAD17C0CEBBB
:103330004C0324FA03F404F00704B4F1040C06D29D
:103340000EEB840CBDE810404CF0010C6047DFE848
:103350000CF0070802024FF00040A0F5800010BDFD
:103360000846420018BFD2F1807288BF00F00040CA
:1033700010BDFF2141EAD050C005704780F00040E9
:1033800090EA010F7FF5DDAD81F0004100F007B854
:1033900090EA010F48BF81F000413FF5D2AD421ADB
:1033A00004D882F00042A0EB020011444FEAD05250
:1033B0004FF07F4C1CEA410FA2EBD15318BF9CEA9F
:1033C000026F4AD04FF0004C4CEA00204CEA012139
:1033D00021FA03FCB0EB0C0C0FD412F0FE0F36D028
:1033E0005FEA4C001DD5001240EBC25038BF704759
:1033F0001CF03F0F18BF70470BE0A2F101025FEA1B
:103400001C2040EBC25038BF70471CF07F0F18BF24
:103410007047C3F12003994014BF401E20F0010003
:10342000704780084FEA122308BF7047B0FA80FC4B
:10343000A2EB0C02CCF1280C60FA0CF093EA122FEC
:1034400004BF00EBC25070474FEAC3707047130AC5
:103450005FEADC1008BF7047F6E79CEA026F04D011
:1034600010EA5C0F08BF0020704710B5FFF73BFF64
:1034700040DFF63E81F00040704700000000000091
:10348000000000000000000000003F4000000000BD
:103490000000000030004000300040000000090043
:1034A0000BC03D000BC03D00090018C024407FE068
:1034B000224031800000180024C01B000D803240E3
:1034C000018003801C4027401C8007400040100002
:1034D000600000000000000000000000000000008C
:1034E0001F80204040200000402020401F8000001E
:1034F0000000090006001F8006000900000004000B
:1035000004003F8004000400000000100060000080
:103510000000000000000400040004000400040097
:10352000000000000040000000000000000000203B
:1035300001C006003800400000001F8020402040ED
:1035400020401F800000000010403FC000400000ED
:10355000000018C021402240244018400000108084
:103560002040244024401B80000002000D00110078
:103570003FC0014000003C80244024402440238080
:1035800000001F80244024403440038000003000AD
:10359000200027C03800200000001B802440244069
:1035A00024401B8000001C0022C0224022401F80BB
:1035B00000000000000008400000000000000000C3
:1035C00000000460000000000000000004000A0089
:1035D000110020804040090009000900090009008D
:1035E000000000004040208011000A000400180084
:1035F000200023402400180000001F8020402740A6
:1036000029401F400000004007C039000F0001C0E2
:10361000004020403FC0244024401B8000001F8009
:103620002040204020403080000020403FC020400B
:1036300020401F80000020403FC024402E4030C06A
:10364000000020403FC024402E00300000000F004A
:103650001080204022403380020020403FC0040000
:1036600004003FC02040204020403FC02040204078
:1036700000000060202020203FC0200020002040CB
:103680003FC024400B0030C0204020403FC02040BD
:103690000040004000C03FC03C0003C03C003FC0B1
:1036A000000020403FC00C4023003FC020001F808E
:1036B0002040204020401F80000020403FC0244088
:1036C0002400180000001F802140214020E01FA09E
:1036D000000020403FC02440260019C0004018C010
:1036E00024402440224031800000300020403FC070
:1036F00020403000000020003F80004000403F801C
:10370000200020003E0001C00700380020003800E3
:1037100007C03C0007C038000000204039C0060048
:1037200039C0204000002000384007C03840200049
:103730000000304021C02640384020C0000000007A
:1037400000007FE0402040200000000070000C00DE
:103750000380004000000000402040207FE0000087
:1037600000000000200040002000000000000010C9
:1037700000100010001000100010000000004000B9
:10378000000000000000000002800540054003C06A
:10379000004020003FC004400440038000000000BF
:1037A0000380044004400640000000000380044001
:1037B00024403FC000400000038005400540034016
:1037C0000000000004401FC02440244020000000EE
:1037D00002E0055005500650042020403FC0044040
:1037E000040003C000400000044027C00040000067
:1037F000000000100010041027E00000000020402E
:103800003FC00140070004C00440204020403FC0AA
:1038100000400040000007C0040007C0040003C0CF
:103820000000044007C00440040003C00040000042
:1038300003800440044003800000041007F004509B
:10384000044003800000000003800440045007F09F
:103850000010044007C00240040004000000000003
:1038600006400540054004C00000000004001F8021
:10387000044000400000040007800040044007C0EE
:1038800000400400070004C0018006000400060098
:1038900001C0070001C006000000044006C001008E
:1038A00006C0044000000410071004E00180060078
:1038B00004000000044005C0064004400000000071
:1038C000000004007BE04020000000000000000039
:1038D000FFF000000000000040207BE0040000003A
:1038E0000000400080004000200020004000000058
:1038F00000000000000000000000000000000000C8
:10390000000000001FCC000C0000000000000000C0
:103910000800300060000800300060000000022055
:1039200003FC1E20022003FC1E20022000000000D9
:103930000E1811043FFF10840C78000000000F00E7
:1039400010840F3800C007781884007800000078D1
:103950000F8410C411240E9800E4008400080800AD
:10396000680070000000000000000000000000007F
:103970000000000007E018182004400200000000CA
:1039800040022004181807E0000000000000024078
:10399000024001800FF001800240024000000080E0
:1039A000008000800FF8008000800080000000018F
:1039B000000D000E000000000000000000000000EC
:1039C0000080008000800080008000800080000077
:1039D000000C000C000000000000000000000000CF
:1039E000000600180060018006001800200000009A
:1039F00007F0080810041004080807F00000000091
:103A0000080408041FFC000400040000000000007B
:103A10000E0C10141024104411840E0C0000000031
:103A20000C1810041104110412880C70000000001E
:103A300000E00320042408241FFC002400000000F0
:103A40001F981084110411041088107000000000E9
:103A500007F00888110411041888007000000000A5
:103A60001C00100010FC13001C00100000000000DF
:103A70000E3811441084108411440E3800000000E8
:103A80000700088C10441044088807F0000000006C
:103A900000000000030C030C000000000000000008
:103AA000000000010106000000000000000000000E
:103AB00000800140022004100808100400000220C9
:103AC000022002200220022002200220000000002A
:103AD00010040808041002200140008000000000CB
:103AE0000E001200100C106C10800F00000003E09C
:103AF0000C1813E4142417C4082807D0000000048D
:103B0000003C03C41C40074000E4001C00041004F7
:103B10001FFC1104110411040E880070000003E062
:103B20000C1810041004100410081C1000001004DD
:103B30001FFC100410041004080807F00000100413
:103B40001FFC1104110417C410040818000010040D
:103B50001FFC1104110017C010000800000003E052
:103B60000C181004100410441C78004000001004CD
:103B70001FFC10840080008010841FFC10040000D3
:103B8000100410041FFC10041004000000000003C7
:103B90000001100110011FFE1000100000001004B1
:103BA0001FFC110403801464181C1004000010048E
:103BB0001FFC1004000400040004000C00001004AA
:103BC0001FFC1F0000FC1F001FFC1004000010045D
:103BD0001FFC0C04030000E010181FFC100007F08D
:103BE0000808100410041004080807F0000010046E
:103BF0001FFC10841080108010800F00000007F060
:103C0000081810241024101C080A07F200001004E1
:103C10001FFC1104110011C011300E0C0004000033
:103C20000E1C11041084108410441C38000018006D
:103C3000100010041FFC10041000180000001000F9
:103C40001FF810040004000410041FF810001000F6
:103C50001E0011E0001C007013801C0010001FC02B
:103C6000103C00E01F0000E0103C1FC000001004EA
:103C7000180C163401C001C01634180C10041000C2
:103C80001C00130400FC13041C00100000000804B6
:103C9000101C1064108413041C0410180000000091
:103CA000000000007FFE40024002400200000000D1
:103CB00030000C0003800060001C000300000000C6
:103CC0004002400240027FFE0000000000000000B1
:103CD00000002000400040004000200000000001E3
:103CE00000010001000100010001000100010000CD
:103CF0004000400020000000000000000000000024
:103D00000098012401440144014400FC0004100017
:103D10001FFC0088010401040088007000000000FE
:103D20000070008801040104010400880000000004
:103D3000007000880104010411081FFC0004000049
:103D400000F8014401440144014400C8000000009F
:103D5000010401040FFC11041104110018000000FB
:103D600000D601290129012901C90106000010041A
:103D70001FFC008401000100010400FC000400009D
:103D80000104190419FC00040004000000000000F4
:103D9000000300010101190119FE000000001004D8
:103DA0001FFC0024004001B4010C010400000000CD
:103DB000100410041FFC00040004000000000104B3
:103DC00001FC0104010001FC0104010000FC0104EC
:103DD00001FC008401000100010400FC000400005B
:103DE00000F8010401040104010400F800000101CD
:103DF00001FF00850104010400880070000000003C
:103E00000070008801040104010501FF00010104A4
:103E1000010401FC00840104010001800000000095
:103E200000CC012401240124012401980000000099
:103E30000100010007F80104010400000000010076
:103E400001F8000400040004010801FC0004010062
:103E500001800170000C001001600180010001F080
:103E6000010C003001C00030010C01F00100000025
:103E70000104018C00740170018C01040000010137
:103E800001810171000E0018016001800100000035
:103E90000184010C013401440184010C0000000084
:103EA00000000000000001003EFC40024002000053
:103EB000000000000000FFFF000000000000000004
:103EC000400240023EFC0100000000000000000033
:103ED00060008000800040004000200020000000C2
:103EE00000000000000000000000000000000000D2
:103EF00000000000000000000000000000000000C2
:103F000000000000000000000000000000000000B1
:103F1000000F80380FFE380F8038000000000000CE
:103F2000000000000000000000000000010000068A
:103F300000000C00003800003100000600000C00FA
:103F40000038000030000000000000000000618028
:103F50000067F807F98000618000618000618000DF
:103F600061800067F807F9800061800000000000B0
:103F70000000000001C0E003E0F00630080418086B
:103F80001FFFFE040E080787F00381E00000000019
:103F9000000001F000060C00040408060C7001F992
:103FA000C0000E00003BE000EC18070808040C18E5
:103FB0000003E00000000001E00007F003F818042F
:103FC0001C0804170807E1D003C0E00023B0003C40
:103FD00008002008000010000000000000010000A0
:103FE0003100003200001C00000000000000000052
:103FF00000000000000000000000000000000000C1
:1040000000000000000000000000000000007F0031
:1040100001FFC00780F00C0018100004200002000F
:1040200000000000002000021000040C00180780AF
:10403000F001FFC0007F0000000000000000000051
:1040400000000000000000000000420000660000C8
:104050006600003C0000180003FFC0001800003C90
:10406000000066000066000042000000000008003A
:1040700000080000080000080000080001FFC00060
:104080000800000800000800000800000800000008
:104090000000000100003100003200001C000000A0
:1040A0000000000000000000000000000000000010
:1040B00000000000000008000008000008000008E0
:1040C00000000800000800000800000800000800C8
:1040D00000080000000000000000000000003800A0
:1040E0000038000038000000000000000000000060
:1040F00000000000000000000000000000000006BA
:1041000000001C000070000180000E00003800005C
:10411000C0000700001C000030000000000000008C
:1041200000007F8001FFE003807006001804000893
:1041300004000806001803807001FFE0007F800083
:10414000000000000000000001000801000801005C
:104150000803FFF807FFF800000800000800000847
:1041600000000000000000000001C03802C0580438
:104170000098040118040218040418061C1803F817
:104180001801E0F800000000000000000001C0E09D
:1041900003C0F0040008040808040808061808030F
:1041A000F41801E7F00001E000000000000000004A
:1041B00000000300000D00001100006100008108F4
:1041C00003010807FFF80FFFF800010800010800CD
:1041D00000000000000000E007FCD0060808061000
:1041E00008061008061008061838060FF00607C063
:1041F000000000000000000000003F8001FFE0031D
:104200008430020818041008041008041008071865
:1042100010030FF00007C0000000000000000000C5
:1042200003C0000700000600000600F80607F806B5
:10423000180006E000070000060000000000000073
:104240000001E1E003F7F006341004180804180830
:10425000040C08040C0806161803F3F001C1E00072
:10426000000000000000F80003FC300306380402E0
:10427000080402080402080404100308F001FFC047
:10428000007F0000000000000000000000000000AF
:104290000000000000007038007038007038000026
:1042A000000000000000000000000000000000000E
:1042B00000000000000000000000301A00301C0068
:1042C00000000000000000000000000000000000EE
:1042D000000000000008000014000022000041005F
:1042E0000080800100400200200400100800080047
:1042F000000000000000210000210000210000213A
:104300000000210000210000210000210000210008
:104310000021000000000000000000000800080468
:1043200000100200200100400080800041000022B7
:104330000000140000080000000000000003C0009E
:1043400004C000040000080038080F3808083808C6
:1043500010000C300007E00003C000000000000067
:1043600000003F8000FFE0038070020F100670889D
:1043700004C088048308047F8802C09003012000E1
:10438000FE400000080000180001F8003E0801C2CD
:104390000007020007E20000FE00001FC80001F84D
:1043A00000003800000804000807FFF807FFF804C1
:1043B000080804080804080804080806180803F494
:1043C0001801E7F00001E0000000000000003F805D
:1043D00001FFE003807002001804000804000804D4
:1043E00000080400100600200780C0000000040040
:1043F0000807FFF807FFF804000804000804000895
:1044000004001802001003807001FFE0007F8000AC
:10441000000004000807FFF807FFF8040808040874
:1044200008040808040808043E08040008060018E8
:1044300001006000000004000807FFF807FFF8040F
:104440000808040800040800040800043E000600F0
:1044500000060000018000000000000000003F8016
:1044600001FFE0038070060018040008040208043D
:1044700002080203F00783F00002000002000400BB
:104480000807FFF807FFF804080800080000080004
:1044900000080000080004080807FFF807FFF804F8
:1044A00000080000000000000400080400080400E8
:1044B0000807FFF807FFF8040008040008040008D4
:1044C00000000000000000000000000600000700DF
:1044D000000104000104000104000307FFFE07FFC0
:1044E000FC04000004000004000004000807FFF8BA
:1044F00007FFF8040C08001800003E0004C7800500
:1045000003C80600F804003804001800000804007E
:104510000807FFF807FFF80400080000080000087B
:1045200000000800000800000800001800006000FB
:10453000000004000807FFF807800807FC00007F60
:10454000C00003F80007C000780007800807FFF8E4
:1045500007FFF804000804000807FFF80700080335
:10456000C00000E000003800001E0000070000014D
:10457000C00400F007FFF8040000000000007F8086
:1045800001FFE0038070060018040008040008061C
:10459000001803003001FFE0007F800000000400ED
:1045A0000807FFF807FFF8040408040400040400E7
:1045B000040400040400060C0003F80001F00000ED
:1045C0000000000000007F8001FFE0038070060013
:1045D000880400880400C806003C03003E01FFE692
:1045E000007F8400000004000807FFF807FFF804BC
:1045F0000808040800040C00040F00040BC0061097
:10460000F003F03801E00800000800000001E0F8C5
:1046100003F030063010041808041808040C0804CD
:104620000C080206180207F00781E0000000018074
:104630000006000004000004000004000807FFF862
:1046400007FFF80400080400000400000600000151
:10465000800004000007FFE007FFF00400180000DE
:10466000080000080000080000080000080400100E
:1046700007FFE004000004000006000007E0000758
:10468000FE00041FE00001F80000380001E0043ED5
:104690000007C00006000004000004000007E0005E
:1046A00007FFC0041FF80007C007F80007FF8004D9
:1046B0003FF80007C004F8000700000400000000F5
:1046C0000004000806001807C07805F1C8003E0085
:1046D000001F800463E80780F80600180400080043
:1046E000000004000006000007800007E008047CCA
:1046F00008001FF80007F800180804E00807000089
:104700000600000400000000000100080600380454
:1047100000F80403E8040F08047C0805F00807C04B
:1047200008070018040060000000000000000000FE
:104730000000000000000000003FFFFE20000220FB
:104740000002200002200002200002000000000001
:104750000000000008000007000000C00000380052
:104760000006000001C000003000000E0000010043
:1047700000000000000000002000022000022000D5
:10478000022000022000023FFFFE000000000000A7
:104790000000000000000000000000000000000811
:1047A0000000100000300000200000300000100069
:1047B00000080000000000000000000001000001EF
:1047C00000000100000100000100000100000100E4
:1047D00000010000010000010000010000010000D4
:1047E0000000000000000020000020000010000079
:1047F00010000000000000000000000000000000A9
:1048000000000000000000F00019F8001B18002252
:1048100008002608002408002410003FF8001FF8B4
:1048200000000800001800000004000007FFF80F57
:10483000FFF00018180010080020080020080030C1
:1048400018001FF0000FC00000000000000007C0AB
:10485000001FF00018300020080020080020080089
:104860003C08001C10000060000000000000000078
:10487000000007C0001FF0003818002008002008C2
:1048800000200804101007FFF80FFFF000001000D0
:1048900000000000000000000007C0001FF0001230
:1048A00030002218002208002208003208001E10E2
:1048B000000E200000000000000020000020080082
:1048C000200801FFF803FFF8062008042008042050
:1048D0000807200003000000000000000000000E98
:1048E000000E6E001FF30031B10020B10020B100B6
:1048F0003191001F13002E1E00200E00300000001A
:104900000004000807FFF80FFFF80010080020005F
:10491000002000002008003FF8001FF800000800F9
:104920000000000000000000002008002008002017
:1049300008063FF8063FF8000008000008000008DD
:104940000000000000000000000000000000030064
:104950000003002001002001002003063FFE063F67
:10496000FC0000000000000000000000000400083F
:1049700007FFF80FFFF8000188000300002FC000B8
:1049800038F800203800200800000800000000006F
:104990000000000004000804000804000807FFF8F5
:1049A0000FFFF800000800000800000800000000E9
:1049B0000000002008003FF8003FF8001008002029
:1049C00000003FF8003FF8001008002000003FF80A
:1049D000003FF8000008000000002008003FF80039
:1049E0003FF8001008001000002000002008003FE1
:1049F000F8001FF80000080000000000000007C0D9
:104A0000000FF000183000300800200800200800D7
:104A10003008001830000FF00007C0000000000050
:104A200000002001003FFF003FFF0010110020099F
:104A3000002008002008003038001FF0000FC000E0
:104A400000000000000007C0001FF0003818002020
:104A500008002008002009001011001FFF003FFF80
:104A600000000100000000200800200800200800CD
:104A70003FF8003FF8000808001008002008002058
:104A800000003000003000000000000000000000C6
:104A9000000C78001E1800330800230800210800CD
:104AA00021880021980030F00038600000000000EC
:104AB0000000200000200000200000FFF003FFF8AD
:104AC000002008002008002008000030000000003E
:104AD0000000000000002000003FF0007FF8000010
:104AE00018000008000008002010003FF8007FF0C8
:104AF0000000100000000000000020000030000056
:104B00003C00003F800023F000007800007000238C
:104B100080003C00003000002000002000003C002D
:104B2000003FE00023F80000E0002700003E000006
:104B30003FE00021F80001E0003E000020000000FE
:104B400000002008002008003838003E6800278058
:104B50000003C8002CF80038380020180020080096
:104B60000000000000002000003003003C01003F76
:104B7000830023EC000070002380003C0000200034
:104B800000200000000000000000000000380800C5
:104B900020380020F80023E8002F88003E08003865
:104BA0000800201800007000000000000000000055
:104BB0000000000000000000000008000014001FBA
:104BC000F7FC30000620000200000000000000009A
:104BD00000000000000000000000000000000000D5
:104BE000FFFFFF00000000000000000000000000C8
:104BF00000000000000000002000023000061FF747
:104C0000FC0014000008000000000000000000008C
:104C100000000000000000000018000060000040DC
:104C20000000400000200000100000080000040008
:104C3000000400000C000010000000005C4C0008A4
:104C400000000020B00000006C0100080C4D0008BE
:104C5000B0000020280700008801000800000000C4
:104C60000000000000000000000000000000000044
:104C70003F065B4F666D7D077F6F00000000000000
:104C80000000000000000000000000000000000024
:104C90000000D2000C030000D20008000000020057
:104CA0000300F0000C03FCFF0300FDFF0400FEFF07
:104CB0000400FFFF050001000500020004000300DE
:104CC00004000400030000000000000000000000D9
:104CD0000057656C636F6D6520746F206D696E6938
:104CE0002050726F6A6563740000000000000000CD
:104CF00000000000000000000000000003000000B1
:0C4D0000000000000000000000000000A7
:04000005080001CD21
:00000001FF
