:020000040800F2
:1000000068060020CD010008E1160008E915000887
:10001000DD160008870200088119000800000000B2
:10002000000000000000000000000000E5160008CD
:100030008B02000800000000E3160008D11700083A
:10004000E7010008E7010008E7010008E7010008F0
:10005000E7010008E7010008E7010008E7010008E0
:10006000E7010008E7010008E7010008E7010008D0
:10007000E7010008E7010008E7010008E7010008C0
:10008000E7010008E7010008E7010008E7010008B0
:10009000E7010008E7010008E7010008E7010008A0
:1000A000E7010008E7010008E7010008E701000890
:1000B000E701000841180008E7010008E70100080F
:1000C000E7010008E7010008E7010008E701000870
:1000D000E7010008E7010008E7010008E701000860
:1000E000E7010008E7010008E7010008E701000850
:1000F000E7010008E7010008E7010008E701000840
:10010000E7010008E7010008E7010008E70100082F
:10011000E7010008E7010008E7010008E70100081F
:10012000E7010008E7010008E7010008E70100080F
:1001300000F002F800F03AF80AA090E8000C8244BF
:100140008344AAF10107DA4501D100F02FF8AFF29C
:10015000090EBAE80F0013F0010F18BFFB1A43F0A5
:1001600001031847741E0000941E0000103A24BFBB
:1001700078C878C1FAD8520724BF30C830C144BF0C
:1001800004680C607047000000230024002500264E
:10019000103A28BF78C1FBD8520728BF30C148BFEA
:1001A0000B6070471FB51FBD10B510BD00F031F8D2
:1001B0001146FFF7F7FF01F0E5FB00F04FF803B43D
:1001C000FFF7F2FF03BC00F057F800000948804732
:1001D00009480047FEE7FEE7FEE7FEE7FEE7FEE729
:1001E000FEE7FEE7FEE7FEE704480549054A064B41
:1001F00070470000E1170008310100086800002086
:1002000068060020680200206802002070477047DE
:100210007047754600F02CF8AE4605006946534617
:1002200020F00700854618B020B5FFF7DDFFBDE8D8
:1002300020404FF000064FF000074FF000084FF04D
:10024000000B21F00701AC46ACE8C009ACE8C009DE
:10025000ACE8C009ACE8C0098D46704710B504464B
:10026000AFF300802046BDE81040FFF7A8BF0000B4
:10027000004870470400002001491820ABBEFEE78B
:1002800026000200704700BFFEE77047002100E033
:10029000491C8142FCD370471148806940F0080036
:1002A0000F4988610F48006820F470000D4908600C
:1002B0000846006840F4401008600948806940F032
:1002C0004000074988610848006820F4700006492A
:1002D00008600846006840F440100860704700005D
:1002E00000100240000C014000180140014601F0DE
:1002F00007021202054B18684FF6FF031840044B23
:1003000018431043014B1860704700000CED00E0EB
:100310000000FA0500B503464FF4285001F0D2F86A
:10032000002001F0DBF842F6012001F0CBF80020BC
:1003300001F0D4F84FF42C5001F0C4F8002001F083
:10034000CDF842F6013001F0BDF8002001F0C6F80A
:100350004FF4305001F0B6F8002203E0184601F0E7
:10036000BDF8521C01488242F8DB00BD00DC0500EC
:1003700010B503460C464FF4285001F0A3F81812AC
:1003800001F0ACF842F6012001F09CF8D8B201F07F
:10039000A5F84FF42C5001F095F8201201F09EF8CA
:1003A00042F6013001F08EF8E0B201F097F84FF418
:1003B000305001F087F8104601F090F810BD0000B1
:1003C00010B55748406940F4807055494861084667
:1003D000806940F0080088610846806940F020008C
:1003E00088610846806940F040008861084680695D
:1003F00040F4807088614B48006820F00F00494944
:1004000008600846006840F003000860464800683D
:100410004649084044490860084600684449084382
:1004200041490860081F006800F0FF20091F0860AC
:100430000846006840F0BB1008603E480068002095
:100440003C4908600846006840F0BB300860081F5F
:10045000006820F07040091F08600846006840F0FE
:10046000304008603448406820F4702032494860C9
:100470000846406840F4302048600846006820F094
:100480000F0008600846006840F00B00086000207C
:100490004FF020418861C861284908604FF0204032
:1004A000806940F480504FF020418861084680699F
:1004B00040F4804088610846806940F010008861FF
:1004C0000846C069C8610846C06940F00100C861BB
:1004D0000846C06940F47060C86118480068C1F8F7
:1004E0001C0116480068C1F81C010846D0F81C0120
:1004F00040F44070C1F81C010846806940F00100DA
:1005000088610F48FFF7C2FE00F01CF80548103064
:10051000006840F0010003491031086010BD000080
:1005200000100240000C01400414014000F0FF00E4
:10053000BB0B00BB04180140002001401C0100A0BF
:1005400020A1070010B555214FF4704000F0BEFF08
:10055000AA214FF2010000F0B9FF52214FF2020030
:1005600000F0B4FF08214FF2030000F0AFFF0121BB
:100570004FF2040000F0AAFF0D214FF4304000F0CC
:10058000A5FF0D214BF2010000F0A0FF0D214BF261
:10059000020000F09BFF35214FF4364000F096FF3B
:1005A00035214BF2016000F091FF35214BF20260E2
:1005B00000F08CFF0D214FF4314000F087FF0D213A
:1005C0004BF2011000F082FF0D214BF2021000F0FF
:1005D0007DFF35214FF4374000F078FF35214BF295
:1005E000017000F073FF35214BF2027000F06EFFD6
:1005F00000214FF4324000F069FF00214BF201204E
:1006000000F064FF00214BF2022000F05FFF242184
:100610004FF4384000F05AFF24214BF6010000F05F
:1006200055FF24214BF6020000F050FF01214FF44A
:100630003F4000F04BFF08214FF4334000F046FFED
:1006400008214BF2013000F041FF08214BF202304B
:1006500000F03CFF34214FF4394000F037FF3421E3
:100660004BF6011000F032FF34214BF6021000F07F
:100670002DFF24214FF43A4000F028FF24214BF6AF
:10068000012000F023FF24214BF6022000F01EFF82
:1006900000214FF43C4000F019FF88214BF6014047
:1006A00000F014FF00214BF6024000F00FFF002184
:1006B0004FF43D4000F00AFF88214BF6015000F056
:1006C00005FF00214BF6025000F000FF00214FF41F
:1006D0003E4000F0FBFEA3214BF6016000F0F6FE69
:1006E00000214FF4514000F0F1FE05214DF20110C0
:1006F00000F0ECFE00214DF2021000F0E7FE402178
:100700004DF2031000F0E2FE00214DF2041000F063
:10071000DDFE60214DF2051000F0D8FE00214DF203
:10072000061000F0D3FE90214DF2071000F0CEFE2F
:1007300000214DF2081000F0C9FE99214DF2091078
:1007400000F0C4FE00214DF20A1000F0BFFEBB21F4
:100750004DF20B1000F0BAFE00214DF20C1000F02B
:10076000B5FEDC214DF20D1000F0B0FE01214DF27E
:100770000E1000F0ABFE04214DF20F1000F0A6FEAB
:1007800001214DF2101000F0A1FE25214DF21110B3
:1007900000F09CFE01214DF2121000F097FE59214D
:1007A0004DF2131000F092FE01214DF2141000F0F2
:1007B0008DFE82214DF2151000F088FE01214DF2D0
:1007C000161000F083FEC6214DF2171000F07EFED9
:1007D00002214DF2181000F079FE01214DF219109E
:1007E00000F074FE02214DF21A1000F06FFE02219B
:1007F0004DF21B1000F06AFE02214DF21C1000F0B9
:1008000065FE39214DF21D1000F060FE02214DF20F
:100810001E1000F05BFE79214DF21F1000F056FE15
:1008200002214DF2201000F051FEA1214DF22110C5
:1008300000F04CFE02214DF2221000F047FED921BB
:100840004DF2231000F042FE03214DF2241000F07F
:100850003DFE00214DF2251000F038FE03214DF23F
:10086000261000F033FE38214DF2271000F02EFE46
:1008700003214DF2281000F029FE67214DF22910C6
:1008800000F024FE03214DF22A1000F01FFE8F21FC
:100890004DF22B1000F01AFE03214DF22C1000F047
:1008A00015FECD214DF22D1000F010FE03214DF26A
:1008B0002E1000F00BFEFD214DF22F1000F006FE71
:1008C00003214DF2301000F001FEFE214DF23110F7
:1008D00000F0FCFD03214DF2321000F0F7FDFF2186
:1008E0004DF2331000F0F2FD00214FF4524000F0C1
:1008F000EDFD05214DF2012000F0E8FD00214DF253
:10090000022000F0E3FD40214DF2032000F0DEFD67
:1009100000214DF2042000F0D9FD6D214DF205209B
:1009200000F0D4FD00214DF2062000F0CFFD902113
:100930004DF2072000F0CAFD00214DF2082000F022
:10094000C5FD99214DF2092000F0C0FD00214DF2B6
:100950000A2000F0BBFDBB214DF20B2000F0B6FDDC
:1009600000214DF20C2000F0B1FDDC214DF20D20F4
:1009700000F0ACFD01214DF20E2000F0A7FD042196
:100980004DF20F2000F0A2FD01214DF2102000F0E9
:100990009DFD25214DF2112000F098FD01214DF221
:1009A000122000F093FD59214DF2132000F08EFD2E
:1009B00001214DF2142000F089FD82214DF2152015
:1009C00000F084FD01214DF2162000F07FFDC621CC
:1009D0004DF2172000F07AFD02214DF2182000F0B0
:1009E00075FD01214DF2192000F070FD02214DF23C
:1009F0001A2000F06BFD02214DF21B2000F066FD75
:100A000002214DF21C2000F061FD39214DF21D2024
:100A100000F05CFD02214DF21E2000F057FD79210F
:100A20004DF21F2000F052FD02214DF2202000F077
:100A30004DFDA1214DF2212000F048FD02214DF293
:100A4000222000F043FDD9214DF2232000F03EFD8D
:100A500003214DF2242000F039FD00214DF2252024
:100A600000F034FD03214DF2262000F02FFD382147
:100A70004DF2272000F02AFD03214DF2282000F03E
:100A800025FD67214DF2292000F020FD03214DF2C4
:100A90002A2000F01BFD8F214DF22B2000F016FDC7
:100AA00003214DF22C2000F011FDCD214DF22D201F
:100AB00000F00CFD03214DF22E2000F007FDFD217A
:100AC0004DF22F2000F002FD03214DF2302000F006
:100AD000FDFCFE214DF2312000F0F8FC03214DF227
:100AE000322000F0F3FCFF214DF2332000F0EEFC49
:100AF00000214FF4534000F0E9FC05214DF2013094
:100B000000F0E4FC00214DF2023000F0DFFC402157
:100B10004DF2033000F0DAFC00214DF2043000F019
:100B2000D5FC6D214DF2053000F0D0FC00214DF2D6
:100B3000063000F0CBFC90214DF2073000F0C6FCEF
:100B400000214DF2083000F0C1FC99214DF209302E
:100B500000F0BCFC00214DF20A3000F0B7FCBB21D4
:100B60004DF20B3000F0B2FC00214DF20C3000F0E1
:100B7000ADFCDC214DF20D3000F0A8FC01214DF25E
:100B80000E3000F0A3FC04214DF20F3000F09EFC6B
:100B900001214DF2103000F099FC25214DF2113069
:100BA00000F094FC01214DF2123000F08FFC59212D
:100BB0004DF2133000F08AFC01214DF2143000F0A8
:100BC00085FC82214DF2153000F080FC01214DF2B0
:100BD000163000F07BFCC6214DF2173000F076FC99
:100BE00002214DF2183000F071FC01214DF2193054
:100BF00000F06CFC02214DF21A3000F067FC02217B
:100C00004DF21B3000F062FC02214DF21C3000F06E
:100C10005DFC39214DF21D3000F058FC02214DF2EF
:100C20001E3000F053FC79214DF21F3000F04EFCD5
:100C300002214DF2203000F049FCA1214DF221307B
:100C400000F044FC02214DF2223000F03FFCD9219B
:100C50004DF2233000F03AFC03214DF2243000F035
:100C600035FC00214DF2253000F030FC03214DF21F
:100C7000263000F02BFC38214DF2273000F026FC06
:100C800003214DF2283000F021FC67214DF229307C
:100C900000F01CFC03214DF22A3000F017FC8F21DC
:100CA0004DF22B3000F012FC03214DF22C3000F0FD
:100CB0000DFCCD214DF22D3000F008FC03214DF24A
:100CC0002E3000F003FCFD214DF22F3000F0FEFB32
:100CD00003214DF2303000F0F9FBFE214DF23130AE
:100CE00000F0F4FB03214DF2323000F0EFFBFF2166
:100CF0004DF2333000F0EAFB00214FF4544000F095
:100D0000E5FB05214DF2014000F0E0FB00214DF232
:100D1000024000F0DBFB40214DF2034000F0D6FB27
:100D200000214DF2044000F0D1FB6D214DF2054051
:100D300000F0CCFB00214DF2064000F0C7FB9021F3
:100D40004DF2074000F0C2FB00214DF2084000F0D8
:100D5000BDFB99214DF2094000F0B8FB00214DF296
:100D60000A4000F0B3FBBB214DF20B4000F0AEFB9C
:100D700000214DF20C4000F0A9FBDC214DF20D40AA
:100D800000F0A4FB01214DF20E4000F09FFB042176
:100D90004DF20F4000F09AFB01214DF2104000F09F
:100DA00095FB25214DF2114000F090FB01214DF201
:100DB000124000F08BFB59214DF2134000F086FBEE
:100DC00001214DF2144000F081FB82214DF21540CB
:100DD00000F07CFB01214DF2164000F077FBC621AC
:100DE0004DF2174000F072FB02214DF2184000F066
:100DF0006DFB01214DF2194000F068FB02214DF21C
:100E00001A4000F063FB02214DF21B4000F05EFB34
:100E100002214DF21C4000F059FB39214DF21D40DA
:100E200000F054FB02214DF21E4000F04FFB7921EF
:100E30004DF21F4000F04AFB02214DF2204000F02D
:100E400045FBA1214DF2214000F040FB02214DF273
:100E5000224000F03BFBD9214DF2234000F036FB4D
:100E600003214DF2244000F031FB00214DF22540DA
:100E700000F02CFB03214DF2264000F027FB382127
:100E80004DF2274000F022FB03214DF2284000F0F4
:100E90001DFB67214DF2294000F018FB03214DF2A4
:100EA0002A4000F013FB8F214DF22B4000F00EFB87
:100EB00003214DF22C4000F009FBCD214DF22D40D5
:100EC00000F004FB03214DF22E4000F0FFFAFD215B
:100ED0004DF22F4000F0FAFA03214DF2304000F0BD
:100EE000F5FAFE214DF2314000F0F0FA03214DF207
:100EF000324000F0EBFAFF214DF2334000F0E6FA09
:100F000000214FF4554000F0E1FA05214DF2015067
:100F100000F0DCFA00214DF2025000F0D7FA402137
:100F20004DF2035000F0D2FA00214DF2045000F0CF
:100F3000CDFA6D214DF2055000F0C8FA00214DF2B6
:100F4000065000F0C3FA90214DF2075000F0BEFAAF
:100F500000214DF2085000F0B9FA99214DF20950E4
:100F600000F0B4FA00214DF20A5000F0AFFABB21B4
:100F70004DF20B5000F0AAFA00214DF20C5000F097
:100F8000A5FADC214DF20D5000F0A0FA00214DF23F
:100F90000E5000F09BFA04214DF20F5000F096FA2B
:100FA00001214DF2105000F091FA25214DF211501F
:100FB00000F08CFA01214DF2125000F087FA59210D
:100FC0004DF2135000F082FA01214DF2145000F05E
:100FD0007DFA82214DF2155000F078FA01214DF290
:100FE000165000F073FAC6214DF2175000F06EFA59
:100FF00002214DF2185000F069FA01214DF219500A
:1010000000F064FA02214DF21A5000F05FFA02215A
:101010004DF21B5000F05AFA02214DF21C5000F024
:1010200055FA39214DF21D5000F050FA02214DF2CF
:101030001E5000F04BFA79214DF21F5000F046FA95
:1010400002214DF2205000F041FAA1214DF2215031
:1010500000F03CFA02214DF2225000F037FAD9217B
:101060004DF2235000F032FA03214DF2245000F0EB
:101070002DFA00214DF2255000F028FA03214DF2FF
:10108000265000F023FA38214DF2275000F01EFAC6
:1010900003214DF2285000F019FA67214DF2295032
:1010A00000F014FA03214DF22A5000F00FFA8F21BC
:1010B0004DF22B5000F00AFA03214DF22C5000F0B3
:1010C00005FACD214DF22D5000F000FA03214DF22A
:1010D0002E5000F0FBF9FD214DF22F5000F0F6F9F3
:1010E00003214DF2305000F0F1F9FE214DF2315064
:1010F00000F0ECF903214DF2325000F0E7F9FF2146
:101100004DF2335000F0E2F900214FF4564000F068
:10111000DDF905214DF2016000F0D8F900214DF212
:10112000026000F0D3F940214DF2036000F0CEF9E7
:1011300000214DF2046000F0C9F96D214DF2056007
:1011400000F0C4F900214DF2066000F0BFF99021D3
:101150004DF2076000F0BAF900214DF2086000F08E
:10116000B5F999214DF2096000F0B0F900214DF276
:101170000A6000F0ABF9BB214DF20B6000F0A6F95C
:1011800000214DF20C6000F0A1F9DC214DF20D6060
:1011900000F09CF901214DF20E6000F097F9042156
:1011A0004DF20F6000F092F901214DF2106000F055
:1011B0008DF925214DF2116000F088F901214DF2E1
:1011C000126000F083F959214DF2136000F07EF9AE
:1011D00001214DF2146000F079F982214DF2156081
:1011E00000F074F901214DF2166000F06FF9C6218C
:1011F0004DF2176000F06AF902214DF2186000F01C
:1012000065F901214DF2196000F060F902214DF2FB
:101210001A6000F05BF902214DF21B6000F056F9F4
:1012200002214DF21C6000F051F939214DF21D6090
:1012300000F04CF902214DF21E6000F047F97921CF
:101240004DF21F6000F042F902214DF2206000F0E3
:101250003DF9A1214DF2216000F038F902214DF253
:10126000226000F033F9D9214DF2236000F02EF90D
:1012700003214DF2246000F029F900214DF2256090
:1012800000F024F903214DF2266000F01FF9382107
:101290004DF2276000F01AF903214DF2286000F0AA
:1012A00015F967214DF2296000F010F903214DF284
:1012B0002A6000F00BF98F214DF22B6000F006F947
:1012C00003214DF22C6000F001F9CD214DF22D608B
:1012D00000F0FCF803214DF22E6000F0F7F8FD213C
:1012E0004DF22F6000F0F2F803214DF2306000F073
:1012F000EDF8FE214DF2316000F0E8F803214DF2E7
:10130000326000F0E3F8FF214DF2336000F0DEF8C8
:1013100055214FF4704000F0D9F8AA214FF2010096
:1013200000F0D4F852214FF2020000F0CFF808216B
:101330004FF2030000F0CAF800214FF2040000F061
:10134000C5F8CC214FF4314000F0C0F800214BF239
:10135000011000F0BBF805214FF4364000F0B6F85C
:1013600070214FF4374000F0B1F870214BF201705A
:1013700000F0ACF801214FF4384000F0A7F8052147
:101380004BF6010000F0A2F805214BF6020000F038
:101390009DF805214BF6030000F098F800214FF46A
:1013A0003C4000F093F800214BF6014000F08EF82D
:1013B00000214BF6024000F089F8D0214FF449405B
:1013C00000F084F882214CF6011000F07FF85021E3
:1013D0004CF6021000F07AF850214CF6031000F0A1
:1013E00075F850214CF6041000F070F855214FF4B8
:1013F000685000F06BF84FF4885000F063F8044830
:10140000FEF744FF4FF4245000F05CF810BD0000DC
:10141000C0D401002DE9F84F05460E469046994686
:10142000002449E0A8F12000254901EB001010F844
:1014300014A0A8F1200001EB00116000401C11F87D
:1014400000B0072716E00AF001000090009838B1BC
:10145000F21991B22A1990B24A46FEF789FF06E0C6
:10146000F21991B22A1990B20A9AFEF781FF4FEA57
:101470006A0A7F1E002FE6DA07271AE00BF0010048
:101480000090009848B106F108023A4491B22A1936
:1014900090B24A46FEF76CFF08E006F108023A44B3
:1014A00091B22A1990B20A9AFEF762FF4FEA6B0BCB
:1014B0007F1E002FE2DA641C072CB3DDBDE8F88F35
:1014C000E81900084FF0D841088070474FF0D84223
:1014D0001080014A118070470008006C01490880A3
:1014E000704700000008006C104AD26942F0020206
:1014F0000E4BDA610E4A1080121F11800C4A203AFE
:10150000128842F001020A4B203B1A80084A2C3A0A
:10151000128842F00102064B2C3B1A804523054AF3
:1015200013704FF00052044B1A60704700100240D5
:101530002C0400401DE400E000E100E00721002051
:10154000274A126842F48032254B1A6000BF244AB1
:101550001268C2F34042002AF9D0214A526822F4AC
:1015600000321F4B5A601A46526842F480325A6069
:101570001A46526842EA81425A601A46126842F09C
:1015800080721A6000BF164A1268520E002AFAD002
:10159000134A526822F00102114B5A601A465268EF
:1015A00042F002025A6005E00D4A5268C2F3870019
:1015B00000F003000228F7D1094A526843F2F00311
:1015C0009A43074B5A601A4652685A603222054BBA
:1015D0001A60034A926942F48042014B9A61704753
:1015E000001002400020024000BFFEE7184880695A
:1015F00040F00800164988610846806940F02000E4
:1016000088611448006820F47F4012490860084649
:10161000006840F4605008600E480830006840F4EC
:1016200040600C49083108600B48006820F47040A5
:10163000094908600846006840F4405008600648C0
:101640000C30006840F0080003490C310860704716
:1016500000100240040C01400014014008B50020B5
:1016600000901C48006840F400601A49086050204F
:10167000FEF70CFE1748006840F00060154908604E
:10168000002322E09DF80000401000901148083827
:101690000068C0F3802020B99DF8000040F0800071
:1016A00000900D48006840F008000B490860502089
:1016B000FEF7ECFD0848006840F400200649086089
:1016C0005020FEF7E3FD581CC3B2082BDADB9DF86F
:1016D000000008BD100C01401014014000BFFEE7DF
:1016E00070477047704710B500F002F810BD000059
:1016F0000CB50020019000903348006840F4803021
:101700003149086000BF3048006800F400300090A4
:101710000198401C0190009818B90198B0F5A06F8D
:10172000F1D12948006800F4003010B10120009088
:1017300001E0002000900098012843D12348006870
:1017400040F01000214908600846006820F00300BE
:1017500008600846006840F0020008601A484068C7
:10176000194948600846406848600846406840F4A7
:10177000806048600846406820F47C104860084655
:10178000406840F4E81048600846006840F0807007
:10179000086000BF0C48006800F000700028F9D015
:1017A0000948406820F0030007494860084640683F
:1017B00040F00200486000BF0348406800F00C00A1
:1017C0000828F9D10CBD00000010024000200240A2
:1017D00002480078401C0149087070470000002052
:1017E00010B51348006840F0010011490860084630
:1017F0004068104908400E494860084600680E4994
:1018000008400B4908600846006820F48020086002
:101810000846406820F4FE0048604FF41F008860CE
:10182000FFF761FF4FF000600449086010BD000041
:10183000001002400000FFF8FFFFF6FE08ED00E098
:101840002DE9FC5F4248008800F00100002877D0B5
:10185000FFF704FF0446002C71D04FF6FF70FEF72F
:1018600059FD04F0010504F0020604F0040704F039
:10187000080804F0100904F0200A04F0400B04F0FA
:101880008000019045B100204FF6FF734122642192
:1018900000908800FFF7BEFD4EB100204FF6FF73A9
:1018A00042226421009040F27710FFF7B3FD47B168
:1018B00000204FF6FF7327A264210090E12000F082
:1018C00077F8B8F1000F09D000204FF6FF7323A27C
:1018D000642100904FF4967000F06AF84FEA2910E6
:1018E00040B100204FF6FF731EA224210090642017
:1018F00000F05EF84FEA6A1040B100204FF6FF7327
:1019000019A2A4210090642000F052F84FEAAB1015
:1019100040B100204FF6FF7315A2642100902420EF
:1019200000F046F80198C01140B100204FF6FF7357
:1019300011A264210090A42000F03AF800BF00BF7B
:101940000348008820F0010001490880BDE8FC9FA1
:101950001004004053454C45435400005354415239
:101960005400000055500000444F574E0000000046
:101970004C454654000000005249474854000000BE
:1019800000BFFEE7FFF7DAFDFEF71AFDFEF784FC65
:101990000520FEF7ABFC41F61F416320FFF7A4FDD5
:1019A000FFF724FE4FF6FF70FEF7B4FC00BFFEE722
:1019B0002DE9F84306460F4615469846DDF8209077
:1019C00000240CE0CDF800902A5D082101FB0461A1
:1019D00088B243463946FFF71DFD601CC4B2285D3E
:1019E0000028EFD1BDE8F8830000000000000000EF
:1019F00000000000000000000000000000001FCCFC
:101A0000000C000000000000000008003000600032
:101A10000800300060000000022003FC1E200220AD
:101A200003FC1E200220000000000E1811043FFFDE
:101A300010840C78000000000F0010840F3800C0E4
:101A4000077818840078000000780F8410C41124EF
:101A50000E9800E400840008080068007000000090
:101A6000000000000000000000000000000007E08F
:101A7000181820044002000000004002200418183A
:101A800007E00000000000000240024001800FF06B
:101A900001800240024000000080008000800FF8BA
:101AA00000800080008000000001000D000E00009A
:101AB00000000000000000000000008000800080A6
:101AC00000800080008000800000000C000C0000FE
:101AD0000000000000000000000000060018006088
:101AE0000180060018002000000007F0080810041C
:101AF0001004080807F000000000080408041FFC98
:101B0000000400040000000000000E0C101410245B
:101B1000104411840E0C000000000C181004110475
:101B2000110412880C700000000000E0032004245F
:101B300008241FFC0024000000001F9810841104DA
:101B40001104108810700000000007F008881104CC
:101B5000110418880070000000001C00100010FC28
:101B600013001C001000000000000E381144108407
:101B7000108411440E38000000000700088C104447
:101B80001044088807F00000000000000000030C6B
:101B9000030C00000000000000000000000101062E
:101BA0000000000000000000000000800140022052
:101BB0000410080810040000022002200220022065
:101BC0000220022002200000000010040808041077
:101BD000022001400080000000000E001200100CE6
:101BE000106C10800F00000003E00C1813E41424A4
:101BF00017C4082807D000000004003C03C41C40A0
:101C0000074000E4001C000410041FFC1104110430
:101C100011040E880070000003E00C18100410047A
:101C2000100410081C10000010041FFC1004100405
:101C30001004080807F0000010041FFC1104110430
:101C400017C410040818000010041FFC1104110030
:101C500017C010000800000003E00C181004100466
:101C600010441C780040000010041FFC1084008009
:101C7000008010841FFC10040000100410041FFCDE
:101C80001004100400000000000300011001100106
:101C90001FFE10001000000010041FFC1104038040
:101CA0001464181C1004000010041FFC100400042D
:101CB00000040004000C000010041FFC1F0000FCC6
:101CC0001F001FFC1004000010041FFC0C04030084
:101CD00000E010181FFC100007F0080810041004A2
:101CE0001004080807F0000010041FFC1084108086
:101CF000108010800F00000007F008181024102436
:101D0000101C080A07F2000010041FFC1104110047
:101D100011C011300E0C000400000E1C11041084C0
:101D2000108410441C3800001800100010041FFC20
:101D3000100410001800000010001FF81004000428
:101D4000000410041FF8100010001E0011E0001C19
:101D5000007013801C0010001FC0103C00E01F002A
:101D600000E0103C1FC000001004180C163401C025
:101D700001C01634180C100410001C00130400FCE1
:101D800013041C00100000000804101C10641084D0
:101D900013041C04101800000000000000007FFE67
:101DA0004002400240020000000030000C000380AE
:101DB0000060001C000300000000400240024002DE
:101DC0007FFE000000000000000000002000400036
:101DD000400040002000000000010001000100015F
:101DE000000100010001000100004000400020004F
:101DF00000000000000000000000009801240144E1
:101E00000144014400FC000410001FFC0088010490
:101E100001040088007000000000007000880104C8
:101E20000104010400880000000000700088010423
:101E3000010411081FFC0004000000F801440144E3
:101E40000144014400C800000000010401040FFC2B
:101E50001104110411001800000000D60129012905
:101E6000012901C90106000010041FFC00840100C3
:101E70000100010400FC000400000104190419FC25
:101E80000004000400000000000000030001010144
:101E9000190119FE0000000010041FFC002400407E
:101EA00001B4010C010400000000100410041FFC28
:101EB0000004000400000000010401FC0104010012
:101EC00001FC0104010000FC010401FC008401008C
:101ED0000100010400FC0004000000F801040104FA
:101EE0000104010400F80000010101FF0085010464
:101EF00001040088007000000000007000880104E8
:101F00000104010501FF00010104010401FC00843A
:101F10000104010001800000000000CC0124012424
:101F2000012401240198000000000100010007F8CD
:101F30000104010400000000010001F80004000495
:101F40000004010801FC0004010001800170000C84
:101F5000001001600180010001F0010C003001C09F
:101F60000030010C01F0010000000104018C00743C
:101F70000170018C01040000010101810171000E5A
:101F8000001801600180010000000184010C01348F
:101F900001440184010C000000000000000000006A
:101FA00001003EFC40024002000000000000000072
:101FB000FFFF0000000000000000400240023EFC65
:101FC00001000000000000000000600080008000B0
:101FD0004000400020002000F81F00080000002002
:101FE000040000006C010008FC1F00080400002031
:0C1FF000640600008801000800000000EA
:04000005080001CD21
:00000001FF
