:020000040800F2
:10000000B8060020D5010008852C00088D2B0008BB
:10001000812C000883040008A934000800000000B7
:10002000000000000000000000000000892C000813
:100030008704000800000000872C0008752D0008C8
:10004000EF010008EF010008EF010008EF010008D0
:10005000EF010008EF01000849260008EF01000841
:1000600085270008ED27000845290008EF01000852
:10007000EF010008EF010008EF010008EF010008A0
:10008000EF010008EF010008EF010008EF01000890
:10009000EF010008EF010008EF010008EF01000880
:1000A000EF010008EF010008EF010008EF01000870
:1000B000EF010008E52D00088D300008EF01000871
:1000C000EF010008EF010008EF010008EF01000850
:1000D000EF01000839320008EF010008EF010008C5
:1000E000EF010008EF010008EF010008EF01000830
:1000F000EF010008EF010008EF010008EF01000820
:10010000EF010008EF010008EF010008EF0100080F
:10011000EF010008EF010008EF010008EF010008FF
:10012000EF010008EF010008EF010008EF010008EF
:1001300000F002F800F03FF80AA090E8000C8244BA
:100140008344AAF10107DA4501D100F034F8AFF297
:10015000090EBAE80F0013F0010F18BFFB1A43F0A5
:1001600001031847E45B0000045C0000103A24BF60
:1001700078C878C1FAD8520724BF30C830C144BF0C
:1001800004680C607047000000230024002500264E
:10019000103A28BF78C1FBD8520728BF30C148BFEA
:1001A0000B607047642900F07D80002070471FB508
:1001B0001FBD10B510BD00F02AF91146FFF7F7FF7B
:1001C00003F074F900F048F903B4FFF7F2FF03BC41
:1001D00000F050F90948804709480047FEE7FEE76C
:1001E000FEE7FEE7FEE7FEE7FEE7FEE7FEE7FEE7E7
:1001F00004480549054A064B70470000852D000854
:1002000031010008B8000020B8060020B802002024
:10021000B80200200FB41CB5074B06AA7B44694600
:100220000090059800F0DBF80020694600F0EAF83D
:100230001CBC5DF814FB0000E50100002DE9F04155
:100240000E460446002020622046E168884730B30D
:10025000252805D0D4E901219047206A401CF2E707
:10026000E168204600278847050018D0A5F1410025
:10027000192802D820354FF4006732462946204617
:100280002760FFF78FFF40B1012804D0F61D26F04C
:1002900007060836D8E7361DD6E72846DAE7206A8B
:1002A000BDE8F0812DE9F04106460024106875296B
:1002B000314616A510D0AFF30080002802DA404284
:1002C00013A507E031688A0701D512A502E04907A6
:1002D00004D511A5012401E0AFF3008000210A221A
:1002E00006F1240709E0B0FBF2FCB0FBF2F302FBDD
:1002F0001C00303078541846491C0028F3D123469E
:100300002A463046BDE8F04100F00BB8000000007E
:100310002D0000002B0000002000000070477047F7
:1003200070472DE9F0470D4699469246044600F184
:1003300024080168880604D5E06921F010012160D5
:1003400000E00120A84201DD471B00E00027A16971
:100350007A1902EB0900081AA0612078C00602D4BD
:100360002046AFF30080002608E0D4E901211AF806
:1003700006009047206A401C761C20624E45F4DB44
:100380002078C0060AD52046AFF3008006E0D4E905
:10039000012130209047206A401C2062381EA7F1BE
:1003A0000107F4DC07E0D4E9012118F805009047C3
:1003B000206A401C2062281EA5F10105F3DC2046BE
:1003C000AFF300802078000602D50220BDE8F08758
:1003D0000120FBE701694A1C02610878704700B5FB
:1003E0008FB0CDE901310021059105497944CDE96E
:1003F000031011466846FFF721FF0FB000BD000053
:10040000E5FFFFFF0A6802F8010B0A6070477546B6
:1004100000F02CF8AE4605006946534620F0070070
:10042000854618B020B5FFF7E3FEBDE820404FF049
:1004300000064FF000074FF000084FF0000B21F0CE
:100440000701AC46ACE8C009ACE8C009ACE8C0099B
:10045000ACE8C0098D46704710B50446AFF3008084
:100460002046BDE81040FFF7AFBE000000487047CF
:100470005400002001491820ABBEFEE72600020010
:10048000704700BFFEE77047002100E0491C814231
:10049000FCD370470848806940F00800064988612D
:1004A0000648006820F00F0004490860084600680C
:1004B00040F003000860704700100240040C014047
:1004C0002D48806940F040002B4988612B48006826
:1004D00020F47060294908600846006840F4006014
:1004E0000860042025490C3108602348806940F0E9
:1004F0004000214988612148006820F470401F496C
:1005000008600846006840F4004008601B480C3052
:10051000006840F0080019490C31086016488069ED
:1005200040F00400144988611548006820F00F006D
:10053000134908600846006840F008000860104849
:100540000C3000680E490C3108600B48806940F09F
:100550001000094988610948006820F470200749A3
:1005600008600846006840F4002008600420034941
:100570000C31086070470000001002400018014074
:10058000000801402148806940F040001F4988610F
:100590001F48006820F470201D4908600846006864
:1005A00040F4002008601A480C30006840F0100049
:1005B00017490C3108601548806940F00100134963
:1005C00088611448C06820F00F011248C160C068FB
:1005D00040F004010F48C1600F48006840F010006F
:1005E0000D4908600C480830006840F010000A49C6
:1005F000083108606521094801700948006840F425
:1006000080604FF0E021C1F8000170470010024007
:100610000018014000000140000401400AE400E02D
:1006200000E100E02148806940F040001F498861F6
:100630001F48006820F470401D49086008460068A3
:1006400040F4004008601A480C30006840F0080090
:1006500017490C3108601548806940F001001349C2
:1006600088611448806820F4704012498860084608
:10067000806840F4804088600F48006840F00800BF
:100680000D4908600C480830006840F008000A492D
:10069000083108603521094801700948006840F4B4
:1006A00000704FF0E021C1F80001704700100240D7
:1006B00000180140000001400004014009E400E08E
:1006C00000E100E02148806940F040001F49886156
:1006D0001F48006820F470601D49086008460068E3
:1006E00040F4006008601A480C30006840F00400D4
:1006F00017490C3108601548806940F00100134922
:1007000088611448806820F4706012498860084647
:10071000806840F4806088600F48006840F0040002
:100720000D4908600C480830006840F004000A4990
:10073000083108606521094801700948006840F4E3
:1007400080704FF0E021C1F80001704700100240B6
:1007500000180140000001400004014008E400E0EE
:1007600000E100E01F48806940F004001D498861F5
:100770001D48006820F00F001B490860084600680B
:1007800040F00800086018480C30006800F00E00C7
:1007900015490C3108601348806940F00100114987
:1007A00088611248806820F00F0010498860104866
:1007B000006840F001000E4908600D4808300068EC
:1007C00040F001000A4908310860752109480170AC
:1007D0000948006840F040004FF0E021C1F80001F6
:1007E0007047000000100240000801400000014076
:1007F0000004014006E400E000E100E000B5134819
:10080000806940F00800114988611148006820F4AF
:1008100070000F4908600846006840F44010086006
:100820000A48806940F0400008498861094800682A
:1008300020F47000074908600846006840F4401042
:10084000086001F0E9FE01F0EDFE00BD001002407D
:10085000000C014000180140014601F0070212029D
:10086000054B18684FF6FF031840044B184310431C
:10087000014B1860704700000CED00E00000FA0525
:1008800000204FF0E021086102484861072008611C
:10089000704700007FFC0A0018B504460A234FF495
:1008A000A5723721D420009400F038F90A2340F2D1
:1008B0008B123721D420009400F030F90A234FF432
:1008C000E6723721D420009400F028F937234FF442
:1008D000AA720A21CA20009400F020F9372340F2BE
:1008E00095120A21CA20009400F018F937234FF41A
:1008F000AA720A2140F20B10009400F00FF937237E
:1009000040F295120A2140F20B10009400F006F913
:1009100018BD000000B503464FF4285001F02AFD31
:10092000002001F033FD42F6012001F023FD0020FC
:1009300001F02CFD4FF42C5001F01CFD002001F0C3
:1009400025FD42F6013001F015FD002001F01EFDED
:100950004FF4305001F00EFD002203E0184601F084
:1009600015FD521C01488242F8DB00BD00DC050089
:100970002DE9F04F05460E4692469B460024574609
:100980000320A0EB4A09BBF1000F48D144E0F21B61
:1009900091B22A1990B2099A00F099F8321B91B2DB
:1009A000EA1990B2099A00F092F8321991B2EA1954
:1009B00090B2099A00F08BF8F21991B22A1990B20C
:1009C000099A00F084F8F21991B22A1B90B2099AA0
:1009D00000F07DF8321991B2EA1B90B2099A00F04A
:1009E00076F8F21B91B22A1B90B2099A00F06FF8C8
:1009F000321B91B2EA1B90B2099A00F068F8641CAD
:100A0000B9F1000F03DAA000801D814404E0E01B6F
:100A100080000A3081447F1EBC42B8DD55E052E0C0
:100A2000A04641E0A6EB080291B22A1990B2099AB9
:100A300000F04DF8321B91B205EB080290B2099A12
:100A400000F045F8321991B205EB080290B2099A0C
:100A500000F03DF806EB080291B22A1990B2099A0B
:100A600000F035F806EB080291B22A1B90B2099A01
:100A700000F02DF8321991B2A5EB080290B2099A54
:100A800000F025F8A6EB080291B22A1B90B2099A51
:100A900000F01DF8321B91B2A5EB080290B2099A42
:100AA00000F015F808F10108B845BBDD641CB9F188
:100AB000000F03DAA000801D814404E0E01B8000E9
:100AC0000A3081447F1EBC42AADDBDE8F08F10B51C
:100AD00003460C464FF4285001F04CFC181201F06C
:100AE00055FC42F6012001F045FCD8B201F04EFC65
:100AF0004FF42C5001F03EFC201201F047FC42F66E
:100B0000013001F037FCE0B201F040FC4FF430500E
:100B100001F030FC104601F039FC10BDF0B5044680
:100B20000D46059F00264FF4285001F023FC2012AB
:100B300001F02CFC42F6012001F01CFCE0B201F0B7
:100B400025FC42F6022001F015FC2919491EC1F3CB
:100B50000F2001F01BFC42F6032001F00BFC2919C9
:100B6000491EC8B201F012FC4FF42C5001F002FCF7
:100B7000101201F00BFC42F6013001F0FBFBD0B289
:100B800001F004FC42F6023001F0F4FB9918491E12
:100B9000C1F30F2001F0FAFB42F6033001F0EAFB4B
:100BA0009918491EC8B201F0F1FB4FF4305001F022
:100BB000E1FB00BF03E0384601F0E8FB761C05FBD3
:100BC00003F0B042F7D8F0BD10B55748406940F483
:100BD0008070554948610846806940F00800886186
:100BE0000846806940F0200088610846806940F02E
:100BF000400088610846806940F4807088614B48F5
:100C0000006820F00F00494908600846006840F07D
:100C100003000860464800684649084044490860A7
:100C2000084600684449084341490860081F0068B5
:100C300000F0FF20091F08600846006840F0BB1064
:100C400008603E48006800203C490860084600688B
:100C500040F0BB300860081F006820F07040091F9A
:100C600008600846006840F030400860344840683A
:100C700020F47020324948600846406840F4302033
:100C800048600846006820F00F00086008460068C9
:100C900040F00B00086000204FF020418861C861DF
:100CA000284908604FF02040806940F480504FF0A0
:100CB000204188610846806940F480408861084688
:100CC000806940F0100088610846C069C861084624
:100CD000C06940F00100C8610846C06940F4706016
:100CE000C86118480068C1F81C0116480068C1F8BE
:100CF0001C010846D0F81C0140F44070C1F81C01EA
:100D00000846806940F0010088610F48FFF7BCFB8E
:100D100000F01CF805481030006840F0010003495D
:100D20001031086010BD000000100240000C0140AE
:100D30000414014000F0FF00BB0B00BB041801408D
:100D4000002001401C0100A020A1070010B5552182
:100D50004FF4704001F012FBAA214FF2010001F0A4
:100D60000DFB52214FF2020001F008FB08214FF267
:100D7000030001F003FB01214FF2040001F0FEFA31
:100D80000D214FF4304001F0F9FA0D214BF2010032
:100D900001F0F4FA0D214BF2020001F0EFFA3521D7
:100DA0004FF4364001F0EAFA35214BF2016001F0D0
:100DB000E5FA35214BF2026001F0E0FA0D214FF423
:100DC000314001F0DBFA0D214BF2011001F0D6FAAF
:100DD0000D214BF2021001F0D1FA35214FF43740CA
:100DE00001F0CCFA35214BF2017001F0C7FA352140
:100DF0004BF2027001F0C2FA00214FF4324001F0D0
:100E0000BDFA00214BF2012001F0B8FA00214BF2AB
:100E1000022001F0B3FA24214FF4384001F0AEFA79
:100E200024214BF6010001F0A9FA24214BF602001F
:100E300001F0A4FA01214FF43F4001F09FFA08218C
:100E40004FF4334001F09AFA08214BF2013001F0DF
:100E500095FA08214BF2023001F090FA34214FF458
:100E6000394001F08BFA34214BF6011001F086FA7B
:100E700034214BF6021001F081FA24214FF43A405C
:100E800001F07CFA24214BF6012001F077FA2421AD
:100E90004BF6022001F072FA00214FF43C4001F0C1
:100EA0006DFA88214BF6014001F068FA00214BF6FB
:100EB000024001F063FA00214FF43D4001F05EFA78
:100EC00088214BF6015001F059FA00214BF60250EF
:100ED00001F054FA00214FF43E4001F04FFAA321F3
:100EE0004BF6016001F04AFA00214FF4514001F045
:100EF00045FA05214DF2011001F040FA00214DF2B2
:100F0000021001F03BFA40214DF2031001F036FAD5
:100F100000214DF2041001F031FA60214DF205106C
:100F200001F02CFA00214DF2061001F027FA902171
:100F30004DF2071001F022FA00214DF2081001F0E5
:100F40001DFA99214DF2091001F018FA00214DF215
:100F50000A1001F013FABB214DF20B1001F00EFA4A
:100F600000214DF20C1001F009FADC214DF20D10B8
:100F700001F004FA01214DF20E1001F0FFF90421F5
:100F80004DF20F1001F0FAF901214DF2101001F0AD
:100F9000F5F925214DF2111001F0F0F901214DF282
:100FA000121001F0EBF959214DF2131001F0E6F99E
:100FB00001214DF2141001F0E1F982214DF21510DA
:100FC00001F0DCF901214DF2161001F0D7F9C6212C
:100FD0004DF2171001F0D2F902214DF2181001F074
:100FE000CDF901214DF2191001F0C8F902214DF29D
:100FF0001A1001F0C3F902214DF21B1001F0BEF9E5
:1010000002214DF21C1001F0B9F939214DF21D10E9
:1010100001F0B4F902214DF21E1001F0AFF979216F
:101020004DF21F1001F0AAF902214DF2201001F03B
:10103000A5F9A1214DF2211001F0A0F902214DF2F4
:10104000221001F09BF9D9214DF2231001F096F9FD
:1010500003214DF2241001F091F900214DF22510E9
:1010600001F08CF903214DF2261001F087F93821A7
:101070004DF2271001F082F903214DF2281001F002
:101080007DF967214DF2291001F078F903214DF225
:101090002A1001F073F98F214DF22B1001F06EF937
:1010A00003214DF22C1001F069F9CD214DF22D10E4
:1010B00001F064F903214DF22E1001F05FF9FD21DA
:1010C0004DF22F1001F05AF903214DF2301001F0CA
:1010D00055F9FE214DF2311001F050F903214DF286
:1010E000321001F04BF9FF214DF2331001F046F9B7
:1010F00000214FF4524001F041F905214DF2012049
:1011000001F03CF900214DF2022001F037F94021B5
:101110004DF2032001F032F900214DF2042001F0DC
:101120002DF96D214DF2052001F028F900214DF235
:10113000062001F023F990214DF2072001F01EF95D
:1011400000214DF2082001F019F999214DF20920F2
:1011500001F014F900214DF20A2001F00FF9BB2132
:101160004DF20B2001F00AF900214DF20C2001F0A4
:1011700005F9DC214DF20D2001F000F901214DF2BD
:101180000E2001F0FBF804214DF20F2001F0F6F8DB
:1011900001214DF2102001F0F1F825214DF211202E
:1011A00001F0ECF801214DF2122001F0E7F859218D
:1011B0004DF2132001F0E2F801214DF2142001F06C
:1011C000DDF882214DF2152001F0D8F801214DF211
:1011D000162001F0D3F8C6214DF2172001F0CEF809
:1011E00002214DF2182001F0C9F801214DF2192019
:1011F00001F0C4F802214DF21A2001F0BFF80221DB
:101200004DF21B2001F0BAF802214DF21C2001F032
:10121000B5F839214DF21D2001F0B0F802214DF250
:101220001E2001F0ABF879214DF21F2001F0A6F845
:1012300002214DF2202001F0A1F8A1214DF2212040
:1012400001F09CF802214DF2222001F097F8D921FB
:101250004DF2232001F092F803214DF2242001F0F9
:101260008DF800214DF2252001F088F803214DF280
:10127000262001F083F838214DF2272001F07EF876
:1012800003214DF2282001F079F867214DF2292041
:1012900001F074F803214DF22A2001F06FF88F213C
:1012A0004DF22B2001F06AF803214DF22C2001F0C1
:1012B00065F8CD214DF22D2001F060F803214DF2AB
:1012C0002E2001F05BF8FD214DF22F2001F056F8A1
:1012D00003214DF2302001F051F8FE214DF2312072
:1012E00001F04CF803214DF2322001F047F8FF21C4
:1012F0004DF2332001F042F800214FF4534001F049
:101300003DF805214DF2013001F038F800214DF291
:10131000023001F033F840214DF2033001F02EF895
:1013200000214DF2043001F029F86D214DF2053015
:1013300001F024F800214DF2063001F01FF8902151
:101340004DF2073001F01AF800214DF2083001F09B
:1013500015F899214DF2093001F010F800214DF2F5
:101360000A3001F00BF8BB214DF20B3001F006F80A
:1013700000214DF20C3001F001F8DC214DF20D306E
:1013800000F0FCFF01214DF20E3000F0F7FF0421C8
:101390004DF20F3000F0F2FF01214DF2103000F05D
:1013A000EDFF25214DF2113000F0E8FF01214DF253
:1013B000123000F0E3FF59214DF2133000F0DEFF50
:1013C00001214DF2143000F0D9FF82214DF2153089
:1013D00000F0D4FF01214DF2163000F0CFFFC621FE
:1013E0004DF2173000F0CAFF02214DF2183000F024
:1013F000C5FF01214DF2193000F0C0FF02214DF26E
:101400001A3000F0BBFF02214DF21B3000F0B6FF96
:1014100002214DF21C3000F0B1FF39214DF21D3098
:1014200000F0ACFF02214DF21E3000F0A7FF792141
:101430004DF21F3000F0A2FF02214DF2203000F0EB
:101440009DFFA1214DF2213000F098FF02214DF2C5
:10145000223000F093FFD9214DF2233000F08EFFAF
:1014600003214DF2243000F089FF00214DF2253098
:1014700000F084FF03214DF2263000F07FFF382179
:101480004DF2273000F07AFF03214DF2283000F0B2
:1014900075FF67214DF2293000F070FF03214DF2F6
:1014A0002A3000F06BFF8F214DF22B3000F066FFE9
:1014B00003214DF22C3000F061FFCD214DF22D3093
:1014C00000F05CFF03214DF22E3000F057FFFD21AC
:1014D0004DF22F3000F052FF03214DF2303000F07A
:1014E0004DFFFE214DF2313000F048FF03214DF257
:1014F000323000F043FFFF214DF2333000F03EFF69
:1015000000214FF4544000F039FF05214DF2014015
:1015100000F034FF00214DF2024000F02FFF402187
:101520004DF2034000F02AFF00214DF2044000F08C
:1015300025FF6D214DF2054000F020FF00214DF206
:10154000064000F01BFF90214DF2074000F016FF0F
:1015500000214DF2084000F011FF99214DF20940A1
:1015600000F00CFF00214DF20A4000F007FFBB2104
:101570004DF20B4000F002FF00214DF20C4000F054
:10158000FDFEDC214DF20D4000F0F8FE01214DF290
:101590000E4000F0F3FE04214DF20F4000F0EEFE8D
:1015A00001214DF2104000F0E9FE25214DF21140DD
:1015B00000F0E4FE01214DF2124000F0DFFE59215F
:1015C0004DF2134000F0DAFE01214DF2144000F01C
:1015D000D5FE82214DF2154000F0D0FE01214DF2E2
:1015E000164000F0CBFEC6214DF2174000F0C6FEBB
:1015F00002214DF2184000F0C1FE01214DF21940C8
:1016000000F0BCFE02214DF21A4000F0B7FE0221AC
:101610004DF21B4000F0B2FE02214DF21C4000F0E2
:10162000ADFE39214DF21D4000F0A8FE02214DF221
:101630001E4000F0A3FE79214DF21F4000F09EFEF7
:1016400002214DF2204000F099FEA1214DF22140EF
:1016500000F094FE02214DF2224000F08FFED921CD
:101660004DF2234000F08AFE03214DF2244000F0A9
:1016700085FE00214DF2254000F080FE03214DF251
:10168000264000F07BFE38214DF2274000F076FE28
:1016900003214DF2284000F071FE67214DF22940F0
:1016A00000F06CFE03214DF22A4000F067FE8F210E
:1016B0004DF22B4000F062FE03214DF22C4000F071
:1016C0005DFECD214DF22D4000F058FE03214DF27C
:1016D0002E4000F053FEFD214DF22F4000F04EFE53
:1016E00003214DF2304000F049FEFE214DF2314021
:1016F00000F044FE03214DF2324000F03FFEFF2196
:101700004DF2334000F03AFE00214FF4554000F016
:1017100035FE05214DF2015000F030FE00214DF262
:10172000025000F02BFE40214DF2035000F026FE47
:1017300000214DF2045000F021FE6D214DF20550C4
:1017400000F01CFE00214DF2065000F017FE902123
:101750004DF2075000F012FE00214DF2085000F04B
:101760000DFE99214DF2095000F008FE00214DF2C6
:101770000A5000F003FEBB214DF20B5000F0FEFDBD
:1017800000214DF20C5000F0F9FDDC214DF20D501E
:1017900000F0F4FD00214DF20E5000F0EFFD0421A9
:1017A0004DF20F5000F0EAFD01214DF2105000F013
:1017B000E5FD25214DF2115000F0E0FD01214DF233
:1017C000125000F0DBFD59214DF2135000F0D6FD10
:1017D00001214DF2145000F0D1FD82214DF215503F
:1017E00000F0CCFD01214DF2165000F0C7FDC621DE
:1017F0004DF2175000F0C2FD02214DF2185000F0DA
:10180000BDFD01214DF2195000F0B8FD02214DF24D
:101810001A5000F0B3FD02214DF21B5000F0AEFD56
:1018200002214DF21C5000F0A9FD39214DF21D504E
:1018300000F0A4FD02214DF21E5000F09FFD792121
:101840004DF21F5000F09AFD02214DF2205000F0A1
:1018500095FDA1214DF2215000F090FD02214DF2A5
:10186000225000F08BFDD9214DF2235000F086FD6F
:1018700003214DF2245000F081FD00214DF225504E
:1018800000F07CFD03214DF2265000F077FD382159
:101890004DF2275000F072FD03214DF2285000F068
:1018A0006DFD67214DF2295000F068FD03214DF2D6
:1018B0002A5000F063FD8F214DF22B5000F05EFDA9
:1018C00003214DF22C5000F059FDCD214DF22D5049
:1018D00000F054FD03214DF22E5000F04FFDFD218C
:1018E0004DF22F5000F04AFD03214DF2305000F030
:1018F00045FDFE214DF2315000F040FD03214DF237
:10190000325000F03BFDFF214DF2335000F036FD28
:1019100000214FF4564000F031FD05214DF20160E9
:1019200000F02CFD00214DF2026000F027FD402167
:101930004DF2036000F022FD00214DF2046000F042
:101940001DFD6D214DF2056000F018FD00214DF2E6
:10195000066000F013FD90214DF2076000F00EFDCF
:1019600000214DF2086000F009FD99214DF2096057
:1019700000F004FD00214DF20A6000F0FFFCBB21E5
:101980004DF20B6000F0FAFC00214DF20C6000F00B
:10199000F5FCDC214DF20D6000F0F0FC01214DF270
:1019A0000E6000F0EBFC04214DF20F6000F0E6FC4D
:1019B00001214DF2106000F0E1FC25214DF2116093
:1019C00000F0DCFC01214DF2126000F0D7FC59213F
:1019D0004DF2136000F0D2FC01214DF2146000F0D2
:1019E000CDFC82214DF2156000F0C8FC01214DF2C2
:1019F000166000F0C3FCC6214DF2176000F0BEFC7B
:101A000002214DF2186000F0B9FC01214DF219607D
:101A100000F0B4FC02214DF21A6000F0AFFC02218C
:101A20004DF21B6000F0AAFC02214DF21C6000F098
:101A3000A5FC39214DF21D6000F0A0FC02214DF201
:101A40001E6000F09BFC79214DF21F6000F096FCB7
:101A500002214DF2206000F091FCA1214DF22160A5
:101A600000F08CFC02214DF2226000F087FCD921AD
:101A70004DF2236000F082FC03214DF2246000F05F
:101A80007DFC00214DF2256000F078FC03214DF231
:101A9000266000F073FC38214DF2276000F06EFCE8
:101AA00003214DF2286000F069FC67214DF22960A6
:101AB00000F064FC03214DF22A6000F05FFC8F21EE
:101AC0004DF22B6000F05AFC03214DF22C6000F027
:101AD00055FCCD214DF22D6000F050FC03214DF25C
:101AE0002E6000F04BFCFD214DF22F6000F046FC13
:101AF00003214DF2306000F041FCFE214DF23160D7
:101B000000F03CFC03214DF2326000F037FCFF2175
:101B10004DF2336000F032FC55214FF4704000F07C
:101B20002DFCAA214FF2010000F028FC52214FF2B7
:101B3000020000F023FC08214FF2030000F01EFC1D
:101B400000214FF2040000F019FCCC214FF4314089
:101B500000F014FC00214BF2011000F00FFC0521F5
:101B60004FF4364000F00AFC70214FF4374000F08B
:101B700005FC70214BF2017000F000FC01214FF4D4
:101B8000384000F0FBFB05214BF6010000F0F6FBAE
:101B900005214BF6020000F0F1FB05214BF6030096
:101BA00000F0ECFB00214FF43C4000F0E7FB00218B
:101BB0004BF6014000F0E2FB00214BF6024000F042
:101BC000DDFBD0214FF4494000F0D8FB82214CF6D8
:101BD000011000F0D3FB50214CF6021000F0CEFBB8
:101BE00050214CF6031000F0C9FB50214CF60410B4
:101BF00000F0C4FB55214FF4685000F0BFFB4FF4D8
:101C0000885000F0B7FB0448FEF73EFC4FF4245028
:101C100000F0B0FB10BD0000C0D401000FB583B0D0
:101C2000059800284FD10698009003980A3080B29A
:101C30000A2302903721049AFEF770FF069800905D
:101C40000498823080B2029003980A3080B20A234E
:101C500001903721029AFEF761FF069800900498E0
:101C60000A3080B2372302460A2102900398FEF719
:101C700055FF0698009004984B3080B237230246F7
:101C80000A2102900398FEF749FF069800900498F5
:101C90000A3080B202900398413080B2372301901D
:101CA0000A21029AFEF73AFF0698009004984B30FA
:101CB00080B202900398413080B2372301900A210C
:101CC000029AFEF72BFF059801281DD10698009077
:101CD00004980A3080B202900398413080B23723D2
:101CE00001900A21029AFEF719FF069800900498C5
:101CF0004B3080B202900398413080B2372301907C
:101D00000A21029AFEF70AFF0598022843D1069895
:101D1000009003980A3080B20A2302903721049A77
:101D2000FEF7FCFE069800900498413080B20290C5
:101D300003980A3080B20A2301903721029AFEF7F5
:101D4000EDFE069800900498823080B202900398CD
:101D50000A3080B20A2301903721029AFEF7DEFE94
:101D60000698009004984B3080B2372302460A212F
:101D700002900398FEF7D2FE0698009004980A306D
:101D800080B202900398413080B2372301900A213B
:101D9000029AFEF7C3FE0598032846D106980090E4
:101DA00003980A3080B20A2302903721049AFEF782
:101DB000B5FE069800900498413080B202900398D6
:101DC0000A3080B20A2301903721029AFEF7A6FE5C
:101DD000069800900498823080B2029003980A30EE
:101DE00080B20A2301903721029AFEF797FE0698E7
:101DF000009004980A3080B202900398413080B27B
:101E0000372301900A21029AFEF788FE0698009077
:101E100004984B3080B202900398413080B237234F
:101E200001900A21029AFEF779FE0598042838D11C
:101E3000069800900498413080B2029003980A30CE
:101E400080B20A2301903721029AFEF767FE0698B6
:101E5000009004980A3080B2372302460A2102908B
:101E60000398FEF75BFE0698009004980A3080B253
:101E700002900398413080B2372301900A21029AE0
:101E8000FEF74CFE0698009004984B3080B202900A
:101E90000398413080B2372301900A21029AFEF75D
:101EA0003DFE0598052843D10698009003980A3016
:101EB00080B20A2302903721049AFEF72FFE06987B
:101EC00000900498413080B2029003980A3080B2AA
:101ED0000A2301903721029AFEF720FE069800900F
:101EE0000498823080B2029003980A3080B20A23AC
:101EF00001903721029AFEF711FE0698009004988F
:101F00000A3080B2372302460A2102900398FEF776
:101F100005FE0698009004984B3080B2029003981A
:101F2000413080B2372301900A21029AFEF7F6FD74
:101F3000059806284FD10698009003980A3080B281
:101F40000A2302903721049AFEF7E8FD06980090D4
:101F50000498413080B2029003980A3080B20A237C
:101F600001903721029AFEF7D9FD06980090049857
:101F7000823080B2029003980A3080B20A23019026
:101F80003721029AFEF7CAFD0698009004980A309D
:101F900080B2372302460A2102900398FEF7BEFD65
:101FA0000698009004984B3080B2372302460A21ED
:101FB00002900398FEF7B2FD0698009004984B300B
:101FC00080B202900398413080B2372301900A21F9
:101FD000029AFEF7A3FD0598072828D106980090DD
:101FE00003980A3080B20A2302903721049AFEF740
:101FF00095FD0698009004980A3080B202900398EC
:10200000413080B2372301900A21029AFEF786FD03
:102010000698009004984B3080B2029003984130AB
:1020200080B2372301900A21029AFEF777FD0598C6
:1020300008285ED10698009003980A3080B20A23DF
:1020400002903721049AFEF769FD069800900498E3
:10205000413080B2029003980A3080B20A23019086
:102060003721029AFEF75AFD0698009004988230B4
:1020700080B2029003980A3080B20A23019037217F
:10208000029AFEF74BFD0698009004980A3080B241
:10209000372302460A2102900398FEF73FFD069877
:1020A000009004984B3080B2372302460A210290F8
:1020B0000398FEF733FD0698009004980A3080B22A
:1020C00002900398413080B2372301900A21029A8E
:1020D000FEF724FD0698009004984B3080B20290E1
:1020E0000398413080B2372301900A21029AFEF70B
:1020F00015FD0598092852D10698009003980A30DA
:1021000080B20A2302903721049AFEF707FD069851
:1021100000900498413080B2029003980A3080B257
:102120000A2301903721029AFEF7F8FC06980090E6
:102130000498823080B2029003980A3080B20A2359
:1021400001903721029AFEF7E9FC06980090049866
:102150000A3080B2372302460A2102900398FEF724
:10216000DDFC0698009004980A3080B20290039833
:10217000413080B2372301900A21029AFEF7CEFC4B
:102180000698009004984B3080B20290039841303A
:1021900080B2372301900A21029AFEF7BFFC07B0F4
:1021A00000BD00002DE9F84F05460E4690469946C1
:1021B000002449E0A8F12000254901EB001010F8A7
:1021C00014A0A8F1200001EB00116000401C11F8E0
:1021D00000B0072716E00AF001000090009838B11F
:1021E000F21991B22A1990B24A46FEF770FC06E045
:1021F000F21991B22A1990B20A9AFEF768FC4FEAD6
:102200006A0A7F1E002FE6DA07271AE00BF00100AA
:102210000090009848B106F108023A4491B22A1998
:1022200090B24A46FEF753FC08E006F108023A4431
:1022300091B22A1990B20A9AFEF749FC4FEA6B0B49
:102240007F1E002FE2DA641C072CB3DDBDE8F88F97
:10225000FA4900082DE9F04F04460D4616469A4605
:10226000DDF8249018224FF00C0B202E01DB7F2E7E
:1022700001DDBDE8F08FA6F12000C6B24FF4285072
:1022800000F078F8201200F081F842F6012000F00A
:1022900071F8E0B200F07AF842F6022000F06AF835
:1022A0000BEB0401491EC1F30F2000F06FF842F65A
:1022B000032000F05FF80BEB0401491EC8B200F0E8
:1022C00065F84FF42C5000F055F8281200F05EF835
:1022D00042F6013000F04EF8E8B200F057F842F64E
:1022E000023000F047F85119491EC1F30F2000F0E9
:1022F0004DF842F6033000F03DF85119491EC8B2BE
:1023000000F044F84FF4305000F034F8002327E098
:1023100000271EE04FF0000817E006EBC600144946
:1023200001EB800008EB48011944405CB84000F024
:10233000800018B1504600F029F802E0484600F04D
:1023400025F808F1010000F0FF08D845E5DB781C0E
:10235000C7B2032092FBF0F0B842DBDC581CC3B2DA
:10236000D11702EB5171B3EBE10FD1DB00BF80E776
:10237000EA4F00084FF0D841088070474FF0D8422C
:102380001080014A118070470008006C01490880E4
:10239000704700000008006C104AD26942F0020247
:1023A0000E4BDA610E4A1080121F11800C4A203A3F
:1023B000128842F001020A4B203B1A80084A2C3A4C
:1023C000128842F00102064B2C3B1A804523054A35
:1023D00013704FF00052044B1A6070470010024017
:1023E0002C0400401DE400E000E100E0104AD26946
:1023F00042F004020E4BDA610E4A1080121F118067
:102400000C4A203A128842F001020A4B203B1A8003
:10241000084A2C3A128842F00102064B2C3B1A80E3
:102420004523054A13709A07044B1A607047000051
:10243000001002402C0800401EE400E000E100E033
:102440006521054801700548006840F020004FF004
:10245000E021C1F80401704725E400E004E100E058
:102460002DE9F05F05460E46300101F02DFF814653
:10247000294905FB01F001F027FF8246494601F09A
:1024800041FE0746384601F0FFFE84B2204601F0C7
:102490001BFF8346394601F0F7FF82464FF0834128
:1024A00001F026FF814601F0EFFE80464FF6FF70F7
:1024B00000EA041404EB080084B21848806940F074
:1024C0000400164988611648006820F47F601449AA
:1024D00008600846006840F40B6008600F48C06858
:1024E00040F480400D49C8600846C06820F4804030
:1024F000C8600C48048042F22C000A49091D08807B
:102500000846008840F0200008800846008840F017
:1025100004000880BDE8F09F40420F000010024018
:10252000040801400838014007210020274A1268AA
:1025300042F48032254B1A6000BF244A1268C2F36D
:102540004042002AF9D0214A526822F400321F4B3F
:102550005A601A46526842F480325A601A465268EB
:1025600042EA81425A601A46126842F080721A604A
:1025700000BF164A1268520E002AFAD0134A526857
:1025800022F00102114B5A601A46526842F00202D0
:102590005A6005E00D4A5268C2F3870000F003005C
:1025A0000228F7D1094A526843F2F0039A43074BD5
:1025B0005A601A4652685A603222054B1A60034A22
:1025C000926942F48042014B9A61704700100240C8
:1025D0000020024002480068C0F30010704700006D
:1025E0000818014002480068C0F3C00070470000AE
:1025F0000818014002480068C0F3800070470000DE
:10260000081801400348006800F001000149086013
:102610007047000008080140202001490860704709
:10262000100C01402020014908607047101801403B
:102630002020014908607047140C01402020014906
:10264000086070471418014008B5FFF7DBFF3349F5
:102650000978022901D1012100E000210840B0B130
:102660001F204FF6FF732EA24FF4AF710090782019
:1026700001F0AEFC4FF6FF701F232BA24FF4C87180
:102680000090782001F0A4FC012029490870FFF790
:10269000B9FF224909780A2901D1012100E000216E
:1026A0000840B0B11F204FF6FF7322A24FF4AF7164
:1026B0000090782001F08CFC4FF6FF701F2326A2BB
:1026C0004FF4C8710090782001F082FC0020264968
:1026D0000870FFF797FF11490978042901D10121FA
:1026E00000E000210840A8B12048007890B91F20E0
:1026F0004FF6FF731EA24FF4AF710090782001F0E7
:1027000067FC0B4800784006000E0949087001205C
:102710001649087001201A49086008BD29000020E8
:102720004561737900000000486172640000000098
:1027300018000020506C6179207769746820616E00
:102740006F7468657220757365722077697468208C
:102750004A6F795061642E00506C617920776974FA
:1027600068204350552E0000190000200100002071
:10277000416363656C65726174696F6E2E00000061
:102780001404014008B5FFF735FF154909780429FD
:1027900001D1012100E000210840E8B14FF6FF70AF
:1027A000052340F21B32502100900E480088FEF7AE
:1027B000B5F90C480088002804DD0A48008819385B
:1027C000084908800020052340F21B325021009068
:1027D00004480088FEF7A2F904200349086008BDF8
:1027E00029000020160000201404014008B5FFF75E
:1027F000F9FE38490978022901D1012100E00021C0
:102800000840B0B14FF6FF701F2333A24FF4AF71F1
:102810000090782001F0DCFB1F204FF6FF7330A200
:102820004FF4C8710090782001F0D2FB02202E49AD
:102830000870FFF7D7FE274909780A2901D101213D
:1028400000E000210840C0B14FF6FF701F2327A20F
:102850004FF4AF710090782001F0BAFB1F204FF6C3
:10286000FF732BA24FF4C8710090782001F0B0FBE9
:10287000FFF7E4FE01202A490870FFF7B3FE58B1C4
:1028800014480078042807D12648007820B906208B
:1028900010490870FFF7C6FEFFF7A4FEB0B10D485F
:1028A0000078062812D11F48007801280ED1042094
:1028B00008490870FFF7C2FE4FF6FF7003461AA2E0
:1028C0004FF4FA710090782001F082FB08201C4937
:1028D000086008BD290000204561737900000000F0
:1028E000486172640000000018000020506C61799B
:1028F000207769746820616E6F74686572207573E3
:1029000065722077697468204A6F795061642E007F
:10291000506C61792077697468204350552E00000F
:102920001900002000000020596F75206172652099
:10293000696E2053544F50206D6F64650000000095
:102940001404014008B5FFF745FE6E4909780229D5
:1029500001D1012100E000210840C0B14FF6FF7015
:102960004FF4487300224FF4F07100901046FEF7C8
:10297000D5F84FF478404FF6FF7363A24FF4C87157
:102980000090322001F040FB03205E490870FFF701
:1029900021FE5C4909780A2901D1012100E00021CA
:1029A000084000287ED04FF6FF704FF44873002295
:1029B0004FF4F07100901046FEF7B0F85B480078D5
:1029C00058B14FF478404FF6FF7359A24FF4C871D5
:1029D0000090322001F018FB0AE04FF478404FF6E7
:1029E000FF735AA24FF4C8710090322001F0F0FA40
:1029F0006248FDF749FD4FF6FF704FF4487300221F
:102A00004FF4F07100901046FEF788F81F23032260
:102A10004FF4A571CA20FFF701F95948FDF734FDBD
:102A20004FF6FF70FDF738FF1F2302224FF4A57108
:102A3000CA20FFF7F3F85248FDF726FD4FF6FF7066
:102A4000FDF72AFF1F2301224FF4A571CA20FFF7CB
:102A5000E5F84B48FDF718FD4FF6FF70FDF71CFF3A
:102A60001F2300224FF4A571CA20FFF7D7F844486E
:102A7000FDF70AFD4FF6FF70FDF70EFF002005235E
:102A800040F21B3250210090C820FEF747F800208A
:102A90000523024650210090C820FEF73FF804208D
:102AA000184900E000E00870FFF794FD1549097827
:102AB000042901D1012100E000210840F0B14FF6C6
:102AC000FF70052340F21B32502100902D480088F2
:102AD000FEF724F82B480088B0F5C87F04DA2948AF
:102AE00000881930274908800020052340F21B3256
:102AF0005021009023480088FEF710F8102022494A
:102B0000086008BD290000205573652055534152C7
:102B10005420666F7220612072616E646F6D206454
:102B20006972656374696F6E2E00000019000020E1
:102B3000596F752061726520706C6179696E6720CC
:102B400077697468204350552E000000596F752036
:102B500061726520706C6179696E6720776974684D
:102B600020616E6F74686572207573657220776975
:102B70007468204A6F795061642E00008096980036
:102B8000C2FB9C00160000201404014000BFFEE7B9
:102B90001848806940F00800164988610846806935
:102BA00040F0200088611448006820F47F401249FA
:102BB00008600846006840F4605008600E4808301D
:102BC000006840F440600C49083108600B48006818
:102BD00020F47040094908600846006840F44050FD
:102BE000086006480C30006840F0080003490C31CA
:102BF0000860704700100240040C014000140140BE
:102C000008B5002000901C48006840F400601A4994
:102C100008605020FDF738FC1748006840F000605D
:102C200015490860002322E09DF800004010009044
:102C3000114808380068C0F3802020B99DF80000D2
:102C400040F0800000900D48006840F008000B49FB
:102C500008605020FDF718FC0848006840F4002088
:102C6000064908605020FDF70FFC581CC3B2082B22
:102C7000DADB9DF8000008BD100C01401014014083
:102C800000BFFEE770477047704710B500F002F8CC
:102C900010BD00000CB50020019000903348006882
:102CA00040F480303149086000BF3048006800F4CB
:102CB000003000900198401C0190009818B90198CC
:102CC000B0F5A06FF1D12948006800F4003010B1D0
:102CD0000120009001E0002000900098012843D1DD
:102CE0002348006840F01000214908600846006849
:102CF00020F0030008600846006840F00200086009
:102D00001A484068194948600846406848600846C3
:102D1000406840F4806048600846406820F47C10B9
:102D200048600846406840F4E8104860084600687B
:102D300040F08070086000BF0C48006800F0007030
:102D40000028F9D00948406820F00300074948608E
:102D50000846406840F00200486000BF03484068F1
:102D600000F00C000828F9D10CBD00000010024052
:102D70000020024002480078401C0149087070475A
:102D80000400002010B51348006840F0010011490C
:102D9000086008464068104908400E4948600846E7
:102DA00000680E4908400B4908600846006820F496
:102DB000802008600846406820F4FE0048604FF418
:102DC0001F008860FFF761FF4FF000600449086052
:102DD00010BD0000001002400000FFF8FFFFF6FEEB
:102DE00008ED00E02DE9FC5F9348008800F0010049
:102DF000002874D0FFF704FF0446002C70D004F0C4
:102E0000010B04F00200019004F0040504F0080630
:102E100004F0100704F0200804F0400904F0800AD0
:102E200025B386480078401C84490870084600781D
:102E300002281ADD82480078042816D181480078DB
:102E40000028FAD11F204FF6FF737FA24FF4AF7115
:102E50000090782001F0BCF87F4800784006000E12
:102E60007D490870012077490870DBE0002E38D0DA
:102E700072480078401C71490870084600780228A2
:102E80000EDD6F48007804280AD17448007838B9FC
:102E900006206B490870FFF7C5FB002067490870E2
:102EA000664800780228E0DD654800780628DCD115
:102EB0006A4800780128D8D1042061490870FFF7DA
:102EC000BDFB4FF6FF70034665A24FF4FA71009008
:102ED000782001F07DF8002058490870A2E0A3E0B6
:102EE000A1E0381138B355480078401C53490870A8
:102EF000084600780228B8DD514800780228B4D18D
:102F00001F204FF6FF735CA24FF4AF710090782042
:102F100001F05EF84FF6FF701F2359A24FF4C871FD
:102F20000090782001F054F801204B4908700020EF
:102F30004249087076E04FEA681038B33F4800789D
:102F4000401C3E4908700846007802286ADD3C486B
:102F50000078022866D14FF6FF701F2346A24FF477
:102F6000AF710090782001F033F81F204FF6FF7307
:102F700043A24FF4C8710090782001F029F8022094
:102F80003549087000202D4908704BE04FEAA91020
:102F900000B32B48007804281CD14FF6FF7005239E
:102FA00000225021009038480088FDF7B7FD3648D0
:102FB0000088002804DD34480088401E324908801B
:102FC000002005230246502100902F480088FDF77D
:102FD000A5FD27E04FEAEA1008B319480078042855
:102FE0001DD14FF6FF700523002250210090264886
:102FF0000088FDF793FD24480088B0F5C87F04DA07
:1030000021480088401C20490880002005230246F2
:10301000502100901C480088FDF780FD02E0002050
:103020000E49087000BF00BF0348008820F001006F
:1030300001490880BDE8FC9F1004004028000020E2
:103040002900002001000020416363656C65726106
:1030500074696F6E2E000000180000200000002030
:10306000596F752061726520696E2053544F50204E
:103070006D6F646500000000456173790000000019
:1030800048617264000000001400002008B54C483C
:10309000008800F0010000287ED04A48007804280B
:1030A0007AD14FF6FF704FF4784347A24FF4267160
:1030B0000090002000F08CFF4FF6FF704FF4784333
:1030C000464A4FF426710090A22000F081FF4FF68F
:1030D000FF704FF4784342A24FF42F71009000200C
:1030E00000F076FF4FF6FF704FF47843414A4FF4FB
:1030F0002F710090A22000F06BFF4FF6FF704FF48D
:1031000078433DA24FF438710090002000F060FF3A
:103110004FF6FF704FF478433C4A4FF438710090FB
:10312000A22000F055FF4FF6FF704FF4784338A20D
:103130004FF441710090002000F04AFF4FF6FF70FD
:103140000346354A4FF441710090A22000F040FF41
:1031500032480088401C314908800846028830A166
:103160002D48FDF757F84FF6FF704FF4784328A22B
:103170004FF441710090002000F02AFF4FF6FF70DD
:103180004FF47843244A4FF441710090A22000F09C
:103190001FFF2448007800E00BE0012809D11F2020
:1031A0004FF6FF7320A24FF4AF710090782000F02B
:1031B0000FFF0348008820F001000149088008BD86
:1031C00010080040290000204E756D626572206F66
:1031D0006620426F756E6365733A00004A000020F6
:1031E000557070657220506C617965722053636F01
:1031F00072653A00360000204C6F77657220506C83
:10320000617965722053636F72653A004000002057
:1032100054696D653A2000002C0000202600002033
:103220002564000001000020416363656C657261E4
:1032300074696F6E2E00000038B54F48008800F0AA
:10324000200000286FD04D48007803286BD14A48F1
:10325000001D008830304A49086047480C30048817
:103260000846006830280AD14FF478404FF6FF73C3
:1032700044A24FF4E1710090782000F0A9FE40488C
:10328000006831280AD14FF478404FF6FF7346A208
:103290004FF4E1710090782000F09AFE3848006801
:1032A00032280AD14FF478404FF6FF7347A24FF40B
:1032B000E1710090782000F08BFE314800683328DF
:1032C0000AD14FF478404FF6FF7349A24FF4E171F1
:1032D0000090782000F07CFE2948006834280AD14C
:1032E0004FF478404FF6FF734AA24FF4E17100901B
:1032F000782000F06DFE2248006835280AD14FF48E
:1033000078404FF6FF734CA24FF4E17100907820A3
:1033100000F05EFE1A48006836280CD14FF4784061
:103320004FF6FF7300E026E04CA24FF4E1710090ED
:10333000782000F04DFE1248006837280AD14FF47B
:1033400078404FF6FF734EA24FF4E1710090782061
:1033500000F03EFE5348FDF797F84FF6FF704FF42C
:10336000487300224FF4F07100901046FDF7D6FB31
:103370000A200249087038BD0038014029000020A9
:103380001C0000205468652072616E646F6D206EB1
:10339000756D626572207265636569766564206922
:1033A000733A2030000000005468652072616E643A
:1033B0006F6D206E756D62657220726563656976EA
:1033C00065642069733A203100000000546865206C
:1033D00072616E646F6D206E756D626572207265CC
:1033E0006365697665642069733A203200000000E5
:1033F0005468652072616E646F6D206E756D6265D4
:10340000722072656365697665642069733A20335A
:10341000000000005468652072616E646F6D206E5C
:10342000756D626572207265636569766564206991
:10343000733A2034000000005468652072616E64A5
:103440006F6D206E756D6265722072656365697659
:1034500065642069733A20350000000054686520D7
:1034600072616E646F6D206E756D6265722072653B
:103470006365697665642069733A20360000000050
:103480005468652072616E646F6D206E756D626543
:10349000722072656365697665642069733A2037C6
:1034A00000000000002D310100BFFEE708B5FDF768
:1034B000A5F9FFF739F8FDF787FBFDF701F8FDF7F0
:1034C000B1F8FDF7FFF8FDF74DF9FDF75BF84FF4A4
:1034D00061514820FEF7C4FFFEF7B2FFFDF7D0F9B7
:1034E00041F61F416320FEF757FFFCF7D3FFFFF7BC
:1034F0004FFB0520FDF7B0F94FF6FF70FDF70AFA14
:10350000FE48FCF7C1FF0120FD490870084600781D
:10351000012835D11F204FF6FF73FAA264210090D5
:10352000084600F071FDF548FCF7AEFF4FF4784017
:103530004FF6FF73FAA296210090782000F048FD24
:10354000EE48FCF7A1FF4FF478404FF6FF73FAA264
:10355000C8210090782000F03BFDE848FCF794FF7C
:103560004FF478404FF6FF73F7A2FA2100907820CD
:1035700000F02EFDE148FCF787FF0220E0490870CB
:10358000DF480078022837D14FF6FF704FF44873B8
:1035900000224FF4F07100901046FDF7BFFA4FF48F
:1035A00078404FF6FF73EDA24FF4967100907820AB
:1035B00000F00EFD1F204FF6FF73F1A24FF4AF7124
:1035C0000090782000F004FD4FF6FF701F23EEA25C
:1035D0004FF4C8710090782000F0FAFC4FF4784066
:1035E0004FF6FF73EAA24FF4E1710090782000F0EB
:1035F000EFFCC248FCF748FF1CE1C14800780A28EC
:1036000001D1012000E00020E749097809B9012132
:1036100000E00021084000282CD04FF478404FF6FD
:10362000FF73E2A24FF496710090642000F0D0FC8A
:103630001F204FF6FF73E9A24FF4AF71009078207E
:1036400000F0C6FC4FF6FF701F23EDA24FF4C871C7
:103650000090782000F0BCFC4FF478404FF6FF73E8
:10366000CBA24FF4E1710090782000F0B1FCA348A8
:10367000FCF70AFFA2480078062813D11F204FF656
:10368000FF73E3A24FF4FA710090782000F0A0FCE1
:10369000FEF7CEFF0120E449087000BF984800788B
:1036A0000628FBD096480078052840D1DF48FCF773
:1036B000EBFE4FF6FF704FF4487300224FF4F071A9
:1036C00000901046FDF72AFA4FF478400123F022CB
:1036D0004FF4C87100901046FDF74AF9D448FCF742
:1036E000D3FE4FF6E0700123B4224FF4C87100906E
:1036F000F020FDF73DF9CE48FCF7C6FE1F20012360
:1037000078224FF4C8710090F020FDF731F9C848D5
:10371000FCF7BAFE4FF4FC6001233C224FF4C87161
:103720000090F020FDF724F9C148FCF7ADFE744885
:10373000007804287ED10020BB49087041F61F4163
:1037400042F20F70FEF752FEBA48006858B9BA4804
:103750000068332803D80120B649086003E04FF021
:10376000FF30B4490860F5E34FF6FF7001230A22E9
:103770000090B2480188B2480088FDF7F9F8B048D7
:1037800000880A2820DBAE480088B0F5EB7F1BDC00
:10379000A8480068012808D1A9480088A9490978E3
:1037A000022202FB0100A6490880A2480068401CD2
:1037B000002808D1A2480088A2490978022202FB09
:1037C00011009F4908807CE09D480088B0F5EB7FA0
:1037D0003BDD4FF0FF309749086099480088401F53
:1037E000974908809848006880F48070964908607E
:1037F0004CF25030FCF748FE9348006880F480702B
:10380000914908609148028891A19248FCF702FD15
:103810004FF6FF7003468F4A4FF426710090A220A6
:1038200000F0D6FB89480088401C884908804FF684
:10383000FF7000E0B9E34FF47843864A4FF42671F5
:103840000090A22000F0C4FB3BE07D4800880A28DD
:1038500037DA01207749086079480088401D7849A7
:1038600008807948006880F48070774908604CF2DD
:103870005030FCF709FE7448006880F4807072498B
:1038800008607248028872A17248FCF7C3FC4FF6C8
:10389000FF7003466F4A4FF426710090A22000F09B
:1038A00097FB6A480088401C684908804FF6FF7003
:1038B0004FF47843674A4FF426710090A22000F03D
:1038C00087FB5E480088142815DB5C480088B0F54B
:1038D000437F10DC60480068401C58B956480068B7
:1038E000332809D8544800683038012101EB4001E1
:1038F0005448B3E0C8E0EDE0B8E00000404B4C00B5
:103900002900002057656C636F6D6520746F206D12
:10391000696E692050726F6A65637421000000004F
:1039200054686973206973207468652046696E6104
:103930006C204C61622E000041726520796F752009
:1039400072656164793F00004F4B21204C657427FC
:10395000732073746172742E00000000506C6561F6
:1039600073652073656C6563742074686520646991
:1039700066666963756C7479206C6576656C3A006F
:103980004561737900000000486172640000000026
:103990005072657373204B45593020746F20656EEB
:1039A0007465722E0000000019000020506C6561E3
:1039B00073652073656C6563742077686F20796F19
:1039C0007520776F756C64206C696B6520746F204F
:1039D000706C617920776974683A0000506C617985
:1039E000207769746820616E6F74686572207573E2
:1039F00065722077697468204A6F795061642E007F
:103A0000506C61792077697468204350552E00000E
:103A1000596F752061726520696E2053544F502094
:103A20006D6F6465000000000000002080C3C901C4
:103A3000809698000C0000201C0000200800002048
:103A400006000020180000200C0C0140240000207B
:103A5000256400004A000020100000200078FE4A83
:103A6000128801FB0020FC4908800DE0FB4800683B
:103A70003438012101EB4000F9490978F64A1288EF
:103A800000FB0120F4490880F6480068012811D1A4
:103A9000F248006833280ED8F04800683038012119
:103AA00001EB4001EE480078EB4A128801FB102040
:103AB000E94908806CE1E94800683438012101EBEC
:103AC0004000E7490978E44A128800FB1120E249E6
:103AD00008805DE1E0480088B0F5437F7EDDE24884
:103AE0000088401FE1490988884261DCDF4801887D
:103AF000DD480088553081425ADCD7480088801F55
:103B0000D54908800120D7490860D948006880F469
:103B10008070D74908604CF25030FCF7B5FCD448AF
:103B2000006880F48070D2490860D2480288AFF201
:103B3000E001D148FCF76EFB4FF6FF700346CE4A1A
:103B40004FF426710090A22000F042FAC948008884
:103B5000401CC84908804FF6FF704FF47843C64AAE
:103B60004FF426710090A22000F032FAC348028878
:103B7000AFF22411C248FCF74DFB4FF6FF7003462D
:103B8000BF4A4FF438710090A22000F021FABB48E0
:103B90000088401CB94908804FF6FF704FF4784305
:103BA000B74A4FF438710090A22000F011FAEFE00C
:103BB000B448FCF769FC00204FF6FF73B2A2642101
:103BC0000090E12000F020FA00204FF6FF73B1A230
:103BD00096210090E12000F017FA00E033E0A348BE
:103BE0000088D22810DDA1480088B0F5A87F0BDC42
:103BF00000204FF6FF73ACA24FF4397100909B4840
:103C0000008800F001FA1AE098480088B0F5A87F13
:103C10000BDD00204FF6FF73A3A24FF43971009023
:103C20004FF4A87000F0F0F909E000204FF6FF73A0
:103C30009DA24FF439710090BE2000F0E5F90520F7
:103C40009D490870A4E0844800881428AFDA9B4896
:103C50000088401F85490988884262DC83480188C2
:103C600096480088553081425BDC7B480088801D87
:103C7000794908804FF0FF307A4908607C48006835
:103C800080F480707A4908604CF25030FCF7FCFBFD
:103C90007748006880F4807075490860754802882C
:103CA000AFF254217448FCF7B5FA4FF6FF700346A3
:103CB000714A4FF426710090A22000F089F96D48F6
:103CC0000088401C6B4908804FF6FF704FF4784322
:103CD000694A4FF426710090A22000F079F97848E3
:103CE0000288AFF294217748FCF794FA4FF6FF7000
:103CF0000346744A4FF42F710090A22000F068F937
:103D00006F480088401C6E4908804FF6FF704FF4E2
:103D100078436C4A4FF42F710090A22000F058F9BC
:103D200036E05848FCF7B0FB00204FF6FF7356A270
:103D300064210090E12000F067F900204FF6FF7346
:103D400061A296210090E12000F05EF947480088CA
:103D5000B0F5A87F0ADC00204FF6FF7352A22421A1
:103D600000904248008800F04FF90EE03F4800887C
:103D7000B0F5A87F09DD00204FF6FF734AA2242189
:103D800000904FF4A87000F03FF905204A490870F0
:103D900038480088062190FBF1F201FB120058B967
:103DA0004FF4784001230A2200902B4801882F48C5
:103DB0000088FCF7DDFDA8E02E480088062190FB76
:103DC000F1F201FB120001280BD14FF6E070012344
:103DD0000A2200902048018824480088FCF7C8FD8A
:103DE00093E024480088062190FBF1F201FB1200C9
:103DF00002280AD11F2001230A22009016480188B8
:103E00001A480088FCF7B4FD7FE01A4800880621B4
:103E100090FBF1F201FB120003280BD14FF4FC6080
:103E200001230A2200900C48018810480088FCF702
:103E30009FFD6AE00F480088062190FBF1F201FB2C
:103E4000120004284DD1002001230A2200900248CC
:103E500001880648008841E0080000201C0000207E
:103E6000180000201000002016000020060000208E
:103E70000C0C0140240000204A00002022000020F9
:103E800040000020404B4C0047616D65204F766537
:103E900072000000557070657220506C6179657217
:103EA0002057696E73210000446561746820726553
:103EB00076696577000000002900002014000020CA
:103EC00020000020360000204C6F77657220506C77
:103ED000617965722057696E73210000FCF748FD17
:103EE00013E033480088062190FBF1F201FB120039
:103EF00005280AD14FF6FF7001230A2200902D48B1
:103F000001882D480088FCF733FD0020052340F28E
:103F10001B325021009029480088FCF7FFFD2848FB
:103F20000078B0B34FF6FF700523002250210090B7
:103F300024480088FCF7F2FD1F480088282801DB90
:103F4000012000E000201C490988B1F5DC7F02DC7B
:103F5000012101E020E00021084028B11648008836
:103F60002838184908800BE013480088282803DA0D
:103F700000201449088003E04FF4C87011490880FC
:103F8000002005230246502100900E480088FCF7CF
:103F9000C5FD00200C4908700B480078022804DB9E
:103FA0000A48007804283FF4DFABFFF726BB000087
:103FB0002400002008000020060000201600002039
:103FC0001900002014000020040000202900002017
:103FD0002DE9F84306460F4615469846DDF8209031
:103FE00000240CE0CDF800902A5D082101FB04615B
:103FF00088B243463946FEF7D5F8601CC4B2285D46
:104000000028EFD1BDE8F8832DE9F84306460F46B6
:1040100015469846DDF8209000240CE0CDF800907D
:104020002A5D0C2101FB046188B243463946FEF744
:1040300011F9601CC4B2285D0028EFD1BDE8F883F7
:1040400090EA010F48BF81F0004100F12E82421A30
:104050003CBF801A89184FEAD0524FF07F4C1CEABF
:10406000410FA2EBD15318BF9CEA026F00F03B80D6
:104070004FF0004C4CEA00204CEA012121FA03FCED
:1040800010EB0C0C1ED202F1FF325FEA1C2040EB59
:10409000C25038BF70471CF07F0F4FEA400C18BF6A
:1040A000BCF17F4F38BF7047C3F12003994008BF70
:1040B00020F00100BCF17F4F38BF7047A0F1C04035
:1040C00000F0DDB94FEA3C00000A40EBC25028BFC7
:1040D0001CF0FF0F4FEA400CE6D018BFBCF17F4F39
:1040E00038BF7047EAE79CEA026F05D010EA5C0F20
:1040F00008BF00F00040704710B500F07AF900BF2B
:1041000064FBBE3E4FF47F0C1CEAD0121EBF1CEABB
:10411000D11392EA0C0F93EA0C0F00F0858090EA1D
:10412000010F48BF42F4807240F4000C41F40000DB
:104130002CF07F4120F07F4000B58142A2EB0302CA
:104140000FF2081CACEB504EC0F100009EF800E0EE
:104150004FEA4E0E00FB0EFC38BF49004FEA2C1C04
:1041600002F5FA020CFB0EF34FEACE1E4FEA112CB9
:104170004FEAC1210EEB635E42EB22420EFB0CFCC8
:104180004FEA1C5300FB03114FEA112C4FEA013197
:104190000EFB0CFC4FEADC4C00FB0C11C14228BFAB
:1041A00009184CEB03335DF804EB10EB410143EBD2
:1041B000C250B2F57C0F38BF704729D512F0F00F0E
:1041C0001CBF00F1C04000F00040704700818283B6
:1041D0008485868788898B8C8D8E8F919293959616
:1041E00097999A9C9D9FA0A2A3A5A7A8AAACAEB0A0
:1041F000B2B3B5B7B9BCBEC0C2C5C7C9CCCED1D4A5
:10420000D7D9DCDFE2E6E9ECF0F3F7FAFE000000D4
:104210004FEA400C0CF1807CBCF17E4F28BF704708
:10422000B0F1C04000F02BB990EA010F0CEAD113B5
:1042300048BF42F48072624538BF634507D213F429
:104240007F0F16D080EA010000F00040704710B5E3
:1042500000F0CFF8097EFC3E00F005B880EA0100CE
:1042600000F00040704780EA010000F0004000F0DC
:1042700006B912F47F0F04BF0248704780EA0100BC
:1042800000F0FDB80000C07FC10DD1F19E0206DB39
:104290004FEA002343F0004323FA02F07047004244
:1042A00007D54FEA4001B1F1FE4F02D24FF00000B6
:1042B000704710B500F09DF84992248000207047A7
:1042C0006FEA200070470000B0FA80F310FA03F2A2
:1042D000C3F19D030AD0D90501EB1220530638BF64
:1042E000704700F1010008BF20F001007047000096
:1042F0004FF47F0C1CEAD0121EBF1CEAD11392EAC5
:104300000C0F93EA0C0F00F0478090EA010F48BFB2
:1043100042F480724FF0004C4CEA00204CEA01213C
:1043200002EB0302A0FB0113A2F50002002918BF53
:1043300043F001035B0028BF4FEA330342EB224204
:104340005FEA132C4CEBC2502EBFBCEB436FB2F5AF
:104350007C0F70474FEA036CBCF1004F08BF20F0A0
:104360000100B2F57C0F38BF70470BD582F0FF0219
:1043700012F5803FC8BF704700F1C040D8BF00F0C1
:104380000040704700F5000C5FEA4C0C48BF7047D6
:10439000B0F1C04000F073B890EA010F0CEAD113FD
:1043A00048BF42F48072624538BF634504D280EA58
:1043B000010000F00040704710B500F01AF800BF8F
:1043C0008900013E00F007B800F009B85FEA410C2F
:1043D0005FEA1C6C08D080EA010000F050B85FEA88
:1043E000400C5FEA1C6CF6D14FF00040A0F5800055
:1043F00070470EF1020E2EF0030E5EF8044B2442BD
:1044000004D44FEA4102B2F17F4F11D84FEA400382
:10441000B3F17F4F0CD80ED14FEAD07CB2F17F4F71
:104420000CEB4C0C0CF1020C08BF4CEBD17C04E003
:104430004FF0080C01E04FEAD17C0CEB4C0324FA5E
:1044400003F404F00704B4F1040C06D20EEB840C60
:10445000BDE810404CF0010C6047DFE80CF00708A5
:1044600002024FF00040A0F5800010BD0846420057
:1044700018BFD2F1807288BF00F0004010BDFF214C
:1044800041EAD050C005704780F0004090EA010F2B
:104490007FF5DDAD81F0004100F007B890EA010F33
:1044A00048BF81F000413FF5D2AD421A04D882F0F6
:1044B0000042A0EB020011444FEAD0524FF07F4C73
:1044C0001CEA410FA2EBD15318BF9CEA026F4AD0FD
:1044D0004FF0004C4CEA00204CEA012121FA03FC89
:1044E000B0EB0C0C0FD412F0FE0F36D05FEA4C008C
:1044F0001DD5001240EBC25038BF70471CF03F0F73
:1045000018BF70470BE0A2F101025FEA1C2040EBEC
:10451000C25038BF70471CF07F0F18BF7047C3F1FF
:104520002003994014BF401E20F00100704780080E
:104530004FEA122308BF7047B0FA80FCA2EB0C02CE
:10454000CCF1280C60FA0CF093EA122F04BF00EBB8
:10455000C25070474FEAC3707047130A5FEADC101D
:1045600008BF7047F6E79CEA026F04D010EA5C0FC0
:1045700008BF0020704710B5FFF73BFF40DFF63E55
:1045800081F00040704700000000000000000000C3
:104590000000000000003F4000000000000000009C
:1045A0003000400030004000000009000BC03D001A
:1045B0000BC03D00090018C024407FE0224031803C
:1045C0000000180024C01B000D80324001800380D1
:1045D0001C4027401C800740004010006000000085
:1045E0000000000000000000000000001F802040CC
:1045F00040200000402020401F80000000000900F3
:1046000006001F80060009000000040004003F802F
:104610000400040000000010006000000000000022
:104620000000040004000400040004000000000076
:1046300000400000000000000000002001C0060053
:104640003800400000001F802040204020401F8094
:104650000000000010403FC000400000000018C0F3
:104660002140224024401840000010802040244077
:1046700024401B80000002000D0011003FC00140DB
:1046800000003C80244024402440238000001F8000
:10469000244024403440038000003000200027C024
:1046A0003800200000001B802440244024401B8050
:1046B00000001C0022C0224022401F800000000099
:1046C000000008400000000000000000000004603E
:1046D000000000000000000004000A00110020801B
:1046E000404009000900090009000900000000001D
:1046F0004040208011000A000400180020002340E0
:104700002400180000001F802040274029401F403F
:104710000000004007C039000F0001C000402040E9
:104720003FC0244024401B8000001F8020402040C8
:1047300020403080000020403FC0204020401F80AB
:10474000000020403FC024402E4030C000002040E8
:104750003FC024402E00300000000F001080204099
:1047600022403380020020403FC0040004003FC0CC
:104770002040204020403FC02040204000000060FA
:10478000202020203FC02000200020403FC02440A7
:104790000B0030C0204020403FC02040004000407F
:1047A00000C03FC03C0003C03C003FC000002040B0
:1047B0003FC00C4023003FC020001F80204020400D
:1047C00020401F80000020403FC0244024001800EB
:1047D00000001F802140214020E01FA00000204059
:1047E0003FC02440260019C0004018C02440244087
:1047F000224031800000300020403FC02040300087
:10480000000020003F80004000403F80200020004A
:104810003E0001C0070038002000380007C03C00FF
:1048200007C038000000204039C0060039C02040D1
:1048300000002000384007C0384020000000304011
:1048400021C02640384020C00000000000007FE06A
:10485000402040200000000070000C000380004059
:1048600000000000402040207FE000000000000029
:104870002000400020000000000000100010001088
:1048800000100010001000000000400000000000B8
:104890000000000002800540054003C000402000E9
:1048A0003FC0044004400380000000000380044037
:1048B00004400640000000000380044024403FC044
:1048C0000040000003800540054003400000000058
:1048D00004401FC0244024402000000002E0055096
:1048E00005500650042020403FC00440040003C08F
:1048F00000400000044027C00040000000000010FD
:104900000010041027E00000000020403FC00140DC
:10491000070004C00440204020403FC00040004049
:10492000000007C0040007C0040003C000000440EA
:1049300007C00440040003C000400000038004409E
:10494000044003800000041007F00450044003807A
:104950000000000003800440045007F000100440F1
:1049600007C00240040004000000000006400540AB
:10497000054004C00000000004001F800440004007
:104980000000040007800040044007C0004004000D
:10499000070004C0018006000400060001C00700F3
:1049A00001C006000000044006C0010006C004402B
:1049B00000000410071004E001800600040000005D
:1049C000044005C006400440000000000000040050
:1049D0007BE040200000000000000000FFF000002D
:1049E0000000000040207BE00400000000004000C8
:1049F0008000400020002000400000000000000077
:104A000000000000000000000000000000000000A6
:104A10001FCC000C00000000000000000800300067
:104A200060000800300060000000022003FC1E202F
:104A3000022003FC1E200220000000000E181104BA
:104A40003FFF10840C78000000000F0010840F3826
:104A500000C0077818840078000000780F8410C424
:104A600011240E9800E4008400080800680070001B
:104A70000000000000000000000000000000000036
:104A800007E0181820044002000000004002200443
:104A9000181807E0000000000000024002400180FA
:104AA0000FF0018002400240000000800080008082
:104AB0000FF800800080008000000001000D000E53
:104AC00000000000000000000000000000800080E6
:104AD000008000800080008000800000000C000C3E
:104AE00000000000000000000000000000060018A8
:104AF00000600180060018002000000007F0080890
:104B000010041004080807F000000000080408045E
:104B10001FFC000400040000000000000E0C101434
:104B20001024104411840E0C000000000C18100416
:104B30001104110412880C700000000000E0032032
:104B4000042408241FFC0024000000001F98108487
:104B500011041104108810700000000007F008888C
:104B60001104110418880070000000001C001000DF
:104B700010FC13001C001000000000000E3811444F
:104B80001084108411440E38000000000700088CC7
:104B900010441044088807F00000000000000000E6
:104BA000030C030C000000000000000000000001E6
:104BB000010600000000000000000000008001402D
:104BC0000220041008081004000002200220022025
:104BD0000220022002200220000000001004080829
:104BE0000410022001400080000000000E001200AE
:104BF000100C106C10800F00000003E00C1813E480
:104C0000142417C4082807D000000004003C03C483
:104C10001C40074000E4001C000410041FFC1104A9
:104C2000110411040E880070000003E00C18100439
:104C30001004100410081C10000010041FFC1004C5
:104C400010041004080807F0000010041FFC1104F1
:104C5000110417C410040818000010041FFC1104EC
:104C6000110017C010000800000003E00C18100429
:104C7000100410441C780040000010041FFC108435
:104C80000080008010841FFC100400001004100439
:104C90001FFC1004100400000000000300011001BC
:104CA00010011FFE10001000000010041FFC110472
:104CB00003801464181C1004000010041FFC10046E
:104CC000000400040004000C000010041FFC1F007E
:104CD00000FC1F001FFC1004000010041FFC0C044B
:104CE000030000E010181FFC100007F00808100473
:104CF00010041004080807F0000010041FFC1084C2
:104D00001080108010800F00000007F00818102499
:104D10001024101C080A07F2000010041FFC1104E4
:104D2000110011C011300E0C000400000E1C110403
:104D30001084108410441C38000018001000100467
:104D40001FFC100410001800000010001FF81004D1
:104D50000004000410041FF8100010001E0011E0F1
:104D6000001C007013801C0010001FC0103C00E0ED
:104D70001F0000E0103C1FC000001004180C163487
:104D800001C001C01634180C100410001C001304DC
:104D900000FC13041C00100000000804101C106428
:104DA000108413041C041018000000000000000010
:104DB0007FFE4002400240020000000030000C0074
:104DC00003800060001C000300000000400240025D
:104DD00040027FFE000000000000000000002000F4
:104DE00040004000400020000000000100010001E0
:104DF000000100010001000100010000400040002E
:104E000020000000000000000000000000980124C5
:104E100001440144014400FC000410001FFC008810
:104E20000104010400880070000000000070008888
:104E300001040104010400880000000000700088E3
:104E40000104010411081FFC0004000000F80144E3
:104E500001440144014400C80000000001040104B1
:104E60000FFC1104110411001800000000D60129E4
:104E70000129012901C90106000010041FFC00845A
:104E800001000100010400FC0004000001041904F9
:104E900019FC0004000400000000000000030001F1
:104EA0000101190119FE0000000010041FFC00247C
:104EB000004001B4010C01040000000010041004C3
:104EC0001FFC0004000400000000010401FC0104B8
:104ED000010001FC0104010000FC010401FC00844C
:104EE00001000100010400FC0004000000F80104BE
:104EF00001040104010400F80000010101FF008524
:104F000001040104008800700000000000700088A7
:104F100001040104010501FF00010104010401FC79
:104F200000840104010001800000000000CC012485
:104F30000124012401240198000000000100010067
:104F400007F80104010400000000010001F800045A
:104F500000040004010801FC00040100018001704C
:104F6000000C001001600180010001F0010C003014
:104F700001C00030010C01F0010000000104018CAF
:104F800000740170018C01040000010101810171B4
:104F9000000E001801600180010000000184010C76
:104FA000013401440184010C0000000000000000F5
:104FB000000001003EFC4002400200000000000032
:104FC0000000FFFF0000000000000000400240025F
:104FD0003EFC0100000000000000000060008000B6
:104FE0008000400040002000200000000000000081
:104FF00000000000000000000000000000000000B1
:1050000000000000000000000000000000000000A0
:10501000000000000000000000000000000F8038C9
:105020000FFE380F80380000000000000000000074
:1050300000000000000000000100000600000C005D
:10504000003800003100000600000C0000380000AD
:105050003000000000000000000061800067F807D9
:10506000F9800061800061800061800061800067DC
:10507000F807F980006180000000000000000000D7
:1050800001C0E003E0F00630080418081FFFFE042A
:105090000E080787F00381E000000000000001F027
:1050A00000060C00040408060C7001F9C0000E0094
:1050B000003BE000EC18070808040C180003E000AF
:1050C00000000001E00007F003F818041C080417B2
:1050D0000807E1D003C0E00023B0003C080020082E
:1050E000000010000000000000010000310000324C
:1050F00000001C0000000000000000000000000094
:10510000000000000000000000000000000000009F
:10511000000000000000000000007F0001FFC00749
:1051200080F00C00181000042000020000000000B5
:10513000002000021000040C00180780F001FFC0DE
:10514000007F0000000000000000000000000000E0
:105150000000000000004200006600006600003C05
:105160000000180003FFC0001800003C00006600AB
:105170000066000042000000000008000008000077
:10518000080000080000080001FFC0000800000837
:1051900000000800000800000800000000000001F6
:1051A00000003100003200001C0000000000000080
:1051B00000000000000000000000000000000000EF
:1051C00000000800000800000800000800000800B7
:1051D00000080000080000080000080000080000A7
:1051E000000000000000000000003800003800004F
:1051F0003800000000000000000000000000000077
:1052000000000000000000000000000600001C007C
:105210000070000180000E0000380000C000070090
:10522000001C0000300000000000000000007F8033
:1052300001FFE0038070060018040008040008065F
:10524000001803807001FFE0007F80000000000074
:105250000000000001000801000801000803FFF839
:1052600007FFF80000080000080000080000000028
:10527000000000000001C03802C05804009804017A
:1052800018040218040418061C1803F81801E0F8A2
:1052900000000000000000000001C0E003C0F004B6
:1052A000000804080804080806180803F41801E7B1
:1052B000F00001E00000000000000000000003001A
:1052C000000D0000110000610000810803010807C3
:1052D000FFF80FFFF80001080001080000000000BF
:1052E000000000E007FCD0060808061008061008B9
:1052F000061008061838060FF00607C00000000068
:105300000000000000003F8001FFE003843002083D
:1053100018041008041008041008071810030FF0F0
:105320000007C000000000000000000003C00007EC
:1053300000000600000600F80607F806180006E060
:105340000007000006000000000000000001E1E08E
:1053500003F7F0063410041808041808040C0804B5
:105360000C0806161803F3F001C1E000000000006D
:105370000000F80003FC30030638040208040208A9
:105380000402080404100308F001FFC0007F0000BD
:10539000000000000000000000000000000000000D
:1053A0000000703800703800703800000000000005
:1053B00000000000000000000000000000000000ED
:1053C000000000000000301A00301C000000000047
:1053D00000000000000000000000000000000000CD
:1053E000000800001400002200004100008080013D
:1053F0000040020020040010080008000000000027
:1054000000002100002100002100002100002100F7
:1054100000210000210000210000210000210000E7
:105420000000000000000000080008040010020056
:105430002001004000808000410000220000140094
:1054400000080000000000000003C00004C00004C9
:105450000000080038080F380808380810000C3021
:105460000007E00003C000000000000000003F80D3
:1054700000FFE0038070020F1006708804C08804EB
:105480008308047F8802C09003012000FE400000D2
:10549000080000180001F8003E0801C200070200E1
:1054A00007E20000FE00001FC80001F800003800FD
:1054B000000804000807FFF807FFF80408080408BC
:1054C0000804080804080806180803F41801E7F09F
:1054D0000001E0000000000000003F8001FFE00349
:1054E000807002001804000804000804000804008A
:1054F000100600200780C000000004000807FFF825
:1055000007FFF8040008040008040008040018025B
:10551000001003807001FFE0007F800000000400A5
:105520000807FFF807FFF80408080408080408083B
:10553000040808043E080400080600180100600082
:10554000000004000807FFF807FFF8040808040833
:1055500000040800040800043E00060000060000E5
:10556000018000000000000000003F8001FFE00318
:1055700080700600180400080402080402080203F0
:10558000F00783F000020000020004000807FFF8A3
:1055900007FFF804080800080000080000080000E1
:1055A000080004080807FFF807FFF80400080000D7
:1055B0000000000004000804000804000807FFF8C9
:1055C00007FFF804000804000804000800000000B9
:1055D00000000000000000060000070000010400B9
:1055E0000104000104000307FFFE07FFFC040000A4
:1055F00004000004000004000807FFF807FFF80497
:105600000C08001800003E0004C7800503C806000F
:10561000F804003804001800000804000807FFF828
:1056200007FFF80400080000080000080000080058
:1056300000080000080000180000600000000400DE
:105640000807FFF807800807FC00007FC00003F888
:105650000007C000780007800807FFF807FFF8047C
:10566000000804000807FFF807000803C00000E076
:1056700000003800001E000007000001C00400F018
:1056800007FFF8040000000000007F8001FFE00336
:1056900080700600180400080400080600180300C3
:1056A0003001FFE0007F8000000004000807FFF8E1
:1056B00007FFF804040804040004040004040004C0
:1056C0000400060C0003F80001F0000000000000D8
:1056D00000007F8001FFE0038070060088040088DE
:1056E0000400C806003C03003E01FFE6007F840082
:1056F000000004000807FFF807FFF8040808040882
:1057000000040C00040F00040BC00610F003F03876
:1057100001E00800000800000001E0F803F0300696
:105720003010041808041808040C08040C080206B9
:10573000180207F00781E000000001800006000069
:1057400004000004000004000807FFF807FFF80445
:1057500000080400000400000600000180000400AE
:105760000007FFE007FFF004001800000800000831
:1057700000000800000800000804001007FFE00413
:10578000000004000006000007E00007FE00041F00
:10579000E00001F80000380001E0043E0007C0000E
:1057A00006000004000004000007E00007FFC0043A
:1057B0001FF80007C007F80007FF80043FF8000744
:1057C000C004F80007000004000000000004000806
:1057D00006001807C07805F1C8003E00001F8004CD
:1057E00063E80780F80600180400080000000400C1
:1057F0000006000007800007E008047C08001FF88E
:105800000007F800180804E008070000060000047C
:1058100000000000000100080600380400F804033E
:10582000E8040F08047C0805F00807C00807001802
:105830000400600000000000000000000000000004
:1058400000000000003FFFFE2000022000022000B8
:105850000220000220000200000000000000000002
:1058600008000007000000C000003800000600002B
:1058700001C000003000000E000001000000000028
:105880000000000020000220000220000220000290
:105890002000023FFFFE00000000000000000000AA
:1058A00000000000000000000000000800001000E0
:1058B0000030000020000030000010000008000050
:1058C00000000000000000000100000100000100D5
:1058D00000010000010000010000010000010000C3
:1058E00001000001000001000001000000000000B4
:1058F0000000002000002000001000001000000048
:105900000000000000000000000000000000000097
:10591000000000F00019F8001B18002208002608FB
:10592000002408002410003FF8001FF800000800C1
:10593000001800000004000007FFF80FFFF0001837
:1059400018001008002008002008003018001FF080
:10595000000FC00000000000000007C0001FF000A2
:105960001830002008002008002008003C08001C17
:10597000100000600000000000000000000007C0F0
:10598000001FF0003818002008002008002008043C
:10599000101007FFF80FFFF00000100000000000DB
:1059A000000000000007C0001FF0001230002218A5
:1059B000002208002208003208001E10000E2000FD
:1059C000000000000000200000200800200801FF67
:1059D000F803FFF806200804200804200807200028
:1059E00003000000000000000000000E000E6E002A
:1059F0001FF30031B10020B10020B1003191001F30
:105A000013002E1E00200E003000000000040008CD
:105A100007FFF80FFFF8001008002000002000002A
:105A20002008003FF8001FF80000080000000000F8
:105A300000000000002008002008002008063FF8B1
:105A4000063FF80000080000080000080000000001
:105A50000000000000000000000003000003002020
:105A600001002001002003063FFE063FFC0000006D
:105A700000000000000000000004000807FFF80F0D
:105A8000FFF8000188000300002FC00038F8002054
:105A9000380020080000080000000000000000009E
:105AA00004000804000804000807FFF80FFFF800CE
:105AB00000080000080000080000000000000020AE
:105AC00008003FF8003FF8001008002000003FF8F1
:105AD000003FF8001008002000003FF8003FF800E9
